{
  "contractName": "SupplyChain",
  "abi": [
    {
      "inputs": [],
      "name": "NotOwner",
      "type": "error"
    },
    {
      "inputs": [],
      "name": "PriceNotMet",
      "type": "error"
    },
    {
      "anonymous": false,
      "inputs": [
        {
          "indexed": true,
          "internalType": "string",
          "name": "productName",
          "type": "string"
        },
        {
          "indexed": true,
          "internalType": "string",
          "name": "barcode",
          "type": "string"
        },
        {
          "indexed": false,
          "internalType": "uint256",
          "name": "productQuantity",
          "type": "uint256"
        },
        {
          "indexed": true,
          "internalType": "address",
          "name": "seller",
          "type": "address"
        },
        {
          "components": [
            {
              "internalType": "string",
              "name": "data",
              "type": "string"
            },
            {
              "internalType": "uint256",
              "name": "created_at",
              "type": "uint256"
            }
          ],
          "indexed": false,
          "internalType": "struct SupplyChain.Data[]",
          "name": "s_DataProduct",
          "type": "tuple[]"
        }
      ],
      "name": "ItemBought",
      "type": "event"
    },
    {
      "anonymous": false,
      "inputs": [
        {
          "indexed": true,
          "internalType": "string",
          "name": "productName",
          "type": "string"
        },
        {
          "indexed": true,
          "internalType": "string",
          "name": "barcode",
          "type": "string"
        },
        {
          "indexed": true,
          "internalType": "address",
          "name": "seller",
          "type": "address"
        },
        {
          "components": [
            {
              "internalType": "string",
              "name": "data",
              "type": "string"
            },
            {
              "internalType": "uint256",
              "name": "created_at",
              "type": "uint256"
            }
          ],
          "indexed": false,
          "internalType": "struct SupplyChain.Data[]",
          "name": "s_DataProduct",
          "type": "tuple[]"
        }
      ],
      "name": "ItemCanceled",
      "type": "event"
    },
    {
      "anonymous": false,
      "inputs": [
        {
          "indexed": true,
          "internalType": "string",
          "name": "productName",
          "type": "string"
        },
        {
          "indexed": true,
          "internalType": "string",
          "name": "barcode",
          "type": "string"
        },
        {
          "indexed": false,
          "internalType": "uint256",
          "name": "productQuantity",
          "type": "uint256"
        },
        {
          "indexed": true,
          "internalType": "address",
          "name": "seller",
          "type": "address"
        },
        {
          "components": [
            {
              "internalType": "string",
              "name": "data",
              "type": "string"
            },
            {
              "internalType": "uint256",
              "name": "created_at",
              "type": "uint256"
            }
          ],
          "indexed": false,
          "internalType": "struct SupplyChain.Data[]",
          "name": "s_DataProduct",
          "type": "tuple[]"
        }
      ],
      "name": "ItemListed",
      "type": "event"
    },
    {
      "anonymous": false,
      "inputs": [
        {
          "indexed": true,
          "internalType": "string",
          "name": "productName",
          "type": "string"
        },
        {
          "indexed": true,
          "internalType": "string",
          "name": "barcode",
          "type": "string"
        },
        {
          "indexed": false,
          "internalType": "uint256",
          "name": "productQuantity",
          "type": "uint256"
        },
        {
          "indexed": true,
          "internalType": "address",
          "name": "seller",
          "type": "address"
        },
        {
          "components": [
            {
              "internalType": "string",
              "name": "data",
              "type": "string"
            },
            {
              "internalType": "uint256",
              "name": "created_at",
              "type": "uint256"
            }
          ],
          "indexed": false,
          "internalType": "struct SupplyChain.Data[]",
          "name": "s_DataProduct",
          "type": "tuple[]"
        }
      ],
      "name": "ItemPurchased",
      "type": "event"
    },
    {
      "anonymous": false,
      "inputs": [
        {
          "indexed": true,
          "internalType": "string",
          "name": "productName",
          "type": "string"
        },
        {
          "indexed": true,
          "internalType": "string",
          "name": "barcode",
          "type": "string"
        },
        {
          "indexed": true,
          "internalType": "address",
          "name": "seller",
          "type": "address"
        },
        {
          "components": [
            {
              "internalType": "string",
              "name": "data",
              "type": "string"
            },
            {
              "internalType": "uint256",
              "name": "created_at",
              "type": "uint256"
            }
          ],
          "indexed": false,
          "internalType": "struct SupplyChain.Data[]",
          "name": "s_DataProduct",
          "type": "tuple[]"
        }
      ],
      "name": "ItemUpdated",
      "type": "event"
    },
    {
      "inputs": [
        {
          "internalType": "uint256",
          "name": "",
          "type": "uint256"
        },
        {
          "internalType": "uint256",
          "name": "",
          "type": "uint256"
        }
      ],
      "name": "s_DataProduct",
      "outputs": [
        {
          "internalType": "string",
          "name": "data",
          "type": "string"
        },
        {
          "internalType": "uint256",
          "name": "created_at",
          "type": "uint256"
        }
      ],
      "stateMutability": "view",
      "type": "function",
      "constant": true
    },
    {
      "inputs": [
        {
          "internalType": "uint256",
          "name": "",
          "type": "uint256"
        }
      ],
      "name": "s_UserInventory",
      "outputs": [
        {
          "internalType": "string",
          "name": "productName",
          "type": "string"
        },
        {
          "internalType": "string",
          "name": "barcode",
          "type": "string"
        },
        {
          "internalType": "uint256",
          "name": "tokenId",
          "type": "uint256"
        },
        {
          "internalType": "uint256",
          "name": "productQuantity",
          "type": "uint256"
        },
        {
          "internalType": "string",
          "name": "cateory",
          "type": "string"
        },
        {
          "internalType": "address",
          "name": "seller",
          "type": "address"
        }
      ],
      "stateMutability": "view",
      "type": "function",
      "constant": true
    },
    {
      "inputs": [
        {
          "internalType": "uint256",
          "name": "",
          "type": "uint256"
        }
      ],
      "name": "s_distributerInventory",
      "outputs": [
        {
          "internalType": "string",
          "name": "productName",
          "type": "string"
        },
        {
          "internalType": "string",
          "name": "barcode",
          "type": "string"
        },
        {
          "internalType": "uint256",
          "name": "tokenId",
          "type": "uint256"
        },
        {
          "internalType": "uint256",
          "name": "productQuantity",
          "type": "uint256"
        },
        {
          "internalType": "string",
          "name": "cateory",
          "type": "string"
        },
        {
          "internalType": "address",
          "name": "seller",
          "type": "address"
        }
      ],
      "stateMutability": "view",
      "type": "function",
      "constant": true
    },
    {
      "inputs": [
        {
          "internalType": "uint256",
          "name": "",
          "type": "uint256"
        }
      ],
      "name": "s_farmerInventory",
      "outputs": [
        {
          "internalType": "string",
          "name": "productName",
          "type": "string"
        },
        {
          "internalType": "string",
          "name": "barcode",
          "type": "string"
        },
        {
          "internalType": "uint256",
          "name": "tokenId",
          "type": "uint256"
        },
        {
          "internalType": "uint256",
          "name": "productQuantity",
          "type": "uint256"
        },
        {
          "internalType": "string",
          "name": "cateory",
          "type": "string"
        },
        {
          "internalType": "address",
          "name": "seller",
          "type": "address"
        }
      ],
      "stateMutability": "view",
      "type": "function",
      "constant": true
    },
    {
      "inputs": [
        {
          "internalType": "uint256",
          "name": "",
          "type": "uint256"
        }
      ],
      "name": "s_processorInventory",
      "outputs": [
        {
          "internalType": "string",
          "name": "productName",
          "type": "string"
        },
        {
          "internalType": "string",
          "name": "barcode",
          "type": "string"
        },
        {
          "internalType": "uint256",
          "name": "tokenId",
          "type": "uint256"
        },
        {
          "internalType": "uint256",
          "name": "productQuantity",
          "type": "uint256"
        },
        {
          "internalType": "string",
          "name": "cateory",
          "type": "string"
        },
        {
          "internalType": "address",
          "name": "seller",
          "type": "address"
        }
      ],
      "stateMutability": "view",
      "type": "function",
      "constant": true
    },
    {
      "inputs": [
        {
          "internalType": "uint256",
          "name": "",
          "type": "uint256"
        }
      ],
      "name": "s_productOwners",
      "outputs": [
        {
          "internalType": "address",
          "name": "providerAddress",
          "type": "address"
        },
        {
          "internalType": "address",
          "name": "farmerAddress",
          "type": "address"
        },
        {
          "internalType": "address",
          "name": "processorAddress",
          "type": "address"
        },
        {
          "internalType": "address",
          "name": "distributerAddress",
          "type": "address"
        },
        {
          "internalType": "address",
          "name": "retailerAddress",
          "type": "address"
        }
      ],
      "stateMutability": "view",
      "type": "function",
      "constant": true
    },
    {
      "inputs": [
        {
          "internalType": "uint256",
          "name": "",
          "type": "uint256"
        }
      ],
      "name": "s_providerinventory",
      "outputs": [
        {
          "internalType": "string",
          "name": "productName",
          "type": "string"
        },
        {
          "internalType": "string",
          "name": "barcode",
          "type": "string"
        },
        {
          "internalType": "uint256",
          "name": "tokenId",
          "type": "uint256"
        },
        {
          "internalType": "uint256",
          "name": "productQuantity",
          "type": "uint256"
        },
        {
          "internalType": "string",
          "name": "cateory",
          "type": "string"
        },
        {
          "internalType": "address",
          "name": "seller",
          "type": "address"
        }
      ],
      "stateMutability": "view",
      "type": "function",
      "constant": true
    },
    {
      "inputs": [
        {
          "internalType": "uint256",
          "name": "",
          "type": "uint256"
        }
      ],
      "name": "s_retailerInventory",
      "outputs": [
        {
          "internalType": "string",
          "name": "productName",
          "type": "string"
        },
        {
          "internalType": "string",
          "name": "barcode",
          "type": "string"
        },
        {
          "internalType": "uint256",
          "name": "tokenId",
          "type": "uint256"
        },
        {
          "internalType": "uint256",
          "name": "productQuantity",
          "type": "uint256"
        },
        {
          "internalType": "string",
          "name": "cateory",
          "type": "string"
        },
        {
          "internalType": "address",
          "name": "seller",
          "type": "address"
        }
      ],
      "stateMutability": "view",
      "type": "function",
      "constant": true
    },
    {
      "inputs": [],
      "name": "s_tokenIDs",
      "outputs": [
        {
          "internalType": "uint256",
          "name": "",
          "type": "uint256"
        }
      ],
      "stateMutability": "view",
      "type": "function",
      "constant": true
    },
    {
      "inputs": [],
      "name": "generateRandomString",
      "outputs": [
        {
          "internalType": "string",
          "name": "",
          "type": "string"
        }
      ],
      "stateMutability": "nonpayable",
      "type": "function"
    },
    {
      "inputs": [],
      "name": "getCurrentTime",
      "outputs": [
        {
          "internalType": "uint256",
          "name": "",
          "type": "uint256"
        }
      ],
      "stateMutability": "view",
      "type": "function",
      "constant": true
    },
    {
      "inputs": [
        {
          "internalType": "string",
          "name": "_ProductName",
          "type": "string"
        },
        {
          "internalType": "uint256",
          "name": "_quantity",
          "type": "uint256"
        },
        {
          "internalType": "string",
          "name": "_category",
          "type": "string"
        }
      ],
      "name": "listItem",
      "outputs": [],
      "stateMutability": "nonpayable",
      "type": "function"
    },
    {
      "inputs": [
        {
          "internalType": "uint256",
          "name": "_tokenID",
          "type": "uint256"
        },
        {
          "components": [
            {
              "internalType": "string",
              "name": "data",
              "type": "string"
            },
            {
              "internalType": "uint256",
              "name": "created_at",
              "type": "uint256"
            }
          ],
          "internalType": "struct SupplyChain.Data",
          "name": "_data",
          "type": "tuple"
        }
      ],
      "name": "updateInfo",
      "outputs": [],
      "stateMutability": "nonpayable",
      "type": "function"
    },
    {
      "inputs": [
        {
          "internalType": "uint256",
          "name": "_tokenID",
          "type": "uint256"
        }
      ],
      "name": "cancelItem",
      "outputs": [],
      "stateMutability": "nonpayable",
      "type": "function"
    },
    {
      "inputs": [
        {
          "internalType": "uint256",
          "name": "_tokenID",
          "type": "uint256"
        }
      ],
      "name": "buyItemfromfamer",
      "outputs": [],
      "stateMutability": "payable",
      "type": "function",
      "payable": true
    },
    {
      "inputs": [
        {
          "internalType": "uint256",
          "name": "_tokenID",
          "type": "uint256"
        }
      ],
      "name": "BuyItemfromProvider",
      "outputs": [],
      "stateMutability": "payable",
      "type": "function",
      "payable": true
    },
    {
      "inputs": [
        {
          "internalType": "uint256",
          "name": "_tokenID",
          "type": "uint256"
        }
      ],
      "name": "buyItemfromProcessor",
      "outputs": [],
      "stateMutability": "payable",
      "type": "function",
      "payable": true
    },
    {
      "inputs": [
        {
          "internalType": "uint256",
          "name": "_tokenID",
          "type": "uint256"
        }
      ],
      "name": "buyItemfromdistributor",
      "outputs": [],
      "stateMutability": "payable",
      "type": "function",
      "payable": true
    },
    {
      "inputs": [
        {
          "internalType": "uint256",
          "name": "_tokenID",
          "type": "uint256"
        }
      ],
      "name": "purchaseItem",
      "outputs": [],
      "stateMutability": "payable",
      "type": "function",
      "payable": true
    },
    {
      "inputs": [
        {
          "internalType": "uint256",
          "name": "_tokenID",
          "type": "uint256"
        }
      ],
      "name": "getProviderListing",
      "outputs": [
        {
          "components": [
            {
              "internalType": "string",
              "name": "productName",
              "type": "string"
            },
            {
              "internalType": "string",
              "name": "barcode",
              "type": "string"
            },
            {
              "internalType": "uint256",
              "name": "tokenId",
              "type": "uint256"
            },
            {
              "internalType": "uint256",
              "name": "productQuantity",
              "type": "uint256"
            },
            {
              "internalType": "string",
              "name": "cateory",
              "type": "string"
            },
            {
              "internalType": "address",
              "name": "seller",
              "type": "address"
            }
          ],
          "internalType": "struct SupplyChain.Product",
          "name": "",
          "type": "tuple"
        }
      ],
      "stateMutability": "view",
      "type": "function",
      "constant": true
    },
    {
      "inputs": [
        {
          "internalType": "uint256",
          "name": "_tokenID",
          "type": "uint256"
        }
      ],
      "name": "getFarmerInventory",
      "outputs": [
        {
          "components": [
            {
              "internalType": "string",
              "name": "productName",
              "type": "string"
            },
            {
              "internalType": "string",
              "name": "barcode",
              "type": "string"
            },
            {
              "internalType": "uint256",
              "name": "tokenId",
              "type": "uint256"
            },
            {
              "internalType": "uint256",
              "name": "productQuantity",
              "type": "uint256"
            },
            {
              "internalType": "string",
              "name": "cateory",
              "type": "string"
            },
            {
              "internalType": "address",
              "name": "seller",
              "type": "address"
            }
          ],
          "internalType": "struct SupplyChain.Product",
          "name": "",
          "type": "tuple"
        }
      ],
      "stateMutability": "view",
      "type": "function",
      "constant": true
    },
    {
      "inputs": [
        {
          "internalType": "uint256",
          "name": "_tokenID",
          "type": "uint256"
        }
      ],
      "name": "getProcessorInventory",
      "outputs": [
        {
          "components": [
            {
              "internalType": "string",
              "name": "productName",
              "type": "string"
            },
            {
              "internalType": "string",
              "name": "barcode",
              "type": "string"
            },
            {
              "internalType": "uint256",
              "name": "tokenId",
              "type": "uint256"
            },
            {
              "internalType": "uint256",
              "name": "productQuantity",
              "type": "uint256"
            },
            {
              "internalType": "string",
              "name": "cateory",
              "type": "string"
            },
            {
              "internalType": "address",
              "name": "seller",
              "type": "address"
            }
          ],
          "internalType": "struct SupplyChain.Product",
          "name": "",
          "type": "tuple"
        }
      ],
      "stateMutability": "view",
      "type": "function",
      "constant": true
    },
    {
      "inputs": [
        {
          "internalType": "uint256",
          "name": "_tokenID",
          "type": "uint256"
        }
      ],
      "name": "getDistributorInventory",
      "outputs": [
        {
          "components": [
            {
              "internalType": "string",
              "name": "productName",
              "type": "string"
            },
            {
              "internalType": "string",
              "name": "barcode",
              "type": "string"
            },
            {
              "internalType": "uint256",
              "name": "tokenId",
              "type": "uint256"
            },
            {
              "internalType": "uint256",
              "name": "productQuantity",
              "type": "uint256"
            },
            {
              "internalType": "string",
              "name": "cateory",
              "type": "string"
            },
            {
              "internalType": "address",
              "name": "seller",
              "type": "address"
            }
          ],
          "internalType": "struct SupplyChain.Product",
          "name": "",
          "type": "tuple"
        }
      ],
      "stateMutability": "view",
      "type": "function",
      "constant": true
    },
    {
      "inputs": [
        {
          "internalType": "uint256",
          "name": "_tokenID",
          "type": "uint256"
        }
      ],
      "name": "getRetailerInventory",
      "outputs": [
        {
          "components": [
            {
              "internalType": "string",
              "name": "productName",
              "type": "string"
            },
            {
              "internalType": "string",
              "name": "barcode",
              "type": "string"
            },
            {
              "internalType": "uint256",
              "name": "tokenId",
              "type": "uint256"
            },
            {
              "internalType": "uint256",
              "name": "productQuantity",
              "type": "uint256"
            },
            {
              "internalType": "string",
              "name": "cateory",
              "type": "string"
            },
            {
              "internalType": "address",
              "name": "seller",
              "type": "address"
            }
          ],
          "internalType": "struct SupplyChain.Product",
          "name": "",
          "type": "tuple"
        }
      ],
      "stateMutability": "view",
      "type": "function",
      "constant": true
    },
    {
      "inputs": [
        {
          "internalType": "uint256",
          "name": "_tokenID",
          "type": "uint256"
        }
      ],
      "name": "getAllOwners",
      "outputs": [
        {
          "components": [
            {
              "internalType": "address",
              "name": "providerAddress",
              "type": "address"
            },
            {
              "internalType": "address",
              "name": "farmerAddress",
              "type": "address"
            },
            {
              "internalType": "address",
              "name": "processorAddress",
              "type": "address"
            },
            {
              "internalType": "address",
              "name": "distributerAddress",
              "type": "address"
            },
            {
              "internalType": "address",
              "name": "retailerAddress",
              "type": "address"
            }
          ],
          "internalType": "struct SupplyChain.Owners",
          "name": "",
          "type": "tuple"
        }
      ],
      "stateMutability": "view",
      "type": "function",
      "constant": true
    },
    {
      "inputs": [],
      "name": "getTokenId",
      "outputs": [
        {
          "internalType": "uint256",
          "name": "",
          "type": "uint256"
        }
      ],
      "stateMutability": "view",
      "type": "function",
      "constant": true
    },
    {
      "inputs": [
        {
          "internalType": "uint256",
          "name": "_tokenID",
          "type": "uint256"
        }
      ],
      "name": "getData",
      "outputs": [
        {
          "components": [
            {
              "internalType": "string",
              "name": "data",
              "type": "string"
            },
            {
              "internalType": "uint256",
              "name": "created_at",
              "type": "uint256"
            }
          ],
          "internalType": "struct SupplyChain.Data[]",
          "name": "",
          "type": "tuple[]"
        }
      ],
      "stateMutability": "view",
      "type": "function",
      "constant": true
    }
  ],
  "bytecode": "0x6080604052600060095534801561001557600080fd5b50615e3c80620000266000396000f3fe60806040526004361061019c5760003560e01c8063718abbbc116100ec5780638d2500141161008a578063a9b73fb811610064578063a9b73fb814610667578063ca0970de14610690578063d38ea5bf146106ac578063d5a1e4c2146106c85761019c565b80638d25001414610606578063a0dbeeb31461062f578063a5567c0c1461064b5761019c565b806376146252116100c6578063761462521461052d5780637691a0281461056f5780637e09bb23146105ac578063896a06aa146105ea5761019c565b8063718abbbc1461046857806373a1bd81146104a9578063751ef232146104eb5761019c565b80632ffd4b4911610159578063589ab03111610133578063589ab0311461037457806359dd5543146103b15780636070e8c6146103ee57806361253a041461042b5761019c565b80632ffd4b49146102c75780634dc1778c1461030957806351563f8e1461034b5761019c565b8063010a38f5146101a15780630178fe3f146101cc5780630b7698c214610209578063226d22031461023457806329cb924d146102715780632a7487cb1461029c575b600080fd5b3480156101ad57600080fd5b506101b661070a565b6040516101c39190614e33565b60405180910390f35b3480156101d857600080fd5b506101f360048036038101906101ee9190614e8e565b610713565b6040516102009190615059565b60405180910390f35b34801561021557600080fd5b5061021e610821565b60405161022b9190614e33565b60405180910390f35b34801561024057600080fd5b5061025b60048036038101906102569190614e8e565b610827565b6040516102689190615153565b60405180910390f35b34801561027d57600080fd5b50610286610a74565b6040516102939190614e33565b60405180910390f35b3480156102a857600080fd5b506102b1610a7c565b6040516102be91906151bf565b60405180910390f35b3480156102d357600080fd5b506102ee60048036038101906102e99190614e8e565b610ba8565b604051610300969594939291906151f0565b60405180910390f35b34801561031557600080fd5b50610330600480360381019061032b9190614e8e565b610d9c565b604051610342969594939291906151f0565b60405180910390f35b34801561035757600080fd5b50610372600480360381019061036d9190614e8e565b610f90565b005b34801561038057600080fd5b5061039b60048036038101906103969190614e8e565b611599565b6040516103a89190615153565b60405180910390f35b3480156103bd57600080fd5b506103d860048036038101906103d39190614e8e565b6117e6565b6040516103e59190615153565b60405180910390f35b3480156103fa57600080fd5b5061041560048036038101906104109190614e8e565b611a33565b6040516104229190615153565b60405180910390f35b34801561043757600080fd5b50610452600480360381019061044d9190614e8e565b611c80565b60405161045f91906152ce565b60405180910390f35b34801561047457600080fd5b5061048f600480360381019061048a9190614e8e565b611e5b565b6040516104a09594939291906152e9565b60405180910390f35b3480156104b557600080fd5b506104d060048036038101906104cb9190614e8e565b611f31565b6040516104e2969594939291906151f0565b60405180910390f35b3480156104f757600080fd5b50610512600480360381019061050d9190614e8e565b612125565b604051610524969594939291906151f0565b60405180910390f35b34801561053957600080fd5b50610554600480360381019061054f9190614e8e565b612319565b604051610566969594939291906151f0565b60405180910390f35b34801561057b57600080fd5b5061059660048036038101906105919190614e8e565b61250d565b6040516105a39190615153565b60405180910390f35b3480156105b857600080fd5b506105d360048036038101906105ce919061533c565b61275a565b6040516105e192919061537c565b60405180910390f35b61060460048036038101906105ff9190614e8e565b612823565b005b34801561061257600080fd5b5061062d600480360381019061062891906154e1565b612e7d565b005b61064960048036038101906106449190614e8e565b613134565b005b61066560048036038101906106609190614e8e565b613754565b005b34801561067357600080fd5b5061068e600480360381019061068991906155e2565b613dae565b005b6106aa60048036038101906106a59190614e8e565b6140d0565b005b6106c660048036038101906106c19190614e8e565b61463e565b005b3480156106d457600080fd5b506106ef60048036038101906106ea9190614e8e565b614ae0565b604051610701969594939291906151f0565b60405180910390f35b60008054905090565b606060016000838152602001908152602001600020805480602002602001604051908101604052809291908181526020016000905b82821015610816578382906000526020600020906002020160405180604001604052908160008201805461077b9061566d565b80601f01602080910402602001604051908101604052809291908181526020018280546107a79061566d565b80156107f45780601f106107c9576101008083540402835291602001916107f4565b820191906000526020600020905b8154815290600101906020018083116107d757829003601f168201915b5050505050815260200160018201548152505081526020019060010190610748565b505050509050919050565b60005481565b61082f614cd4565b600560008381526020019081526020016000206040518060c001604052908160008201805461085d9061566d565b80601f01602080910402602001604051908101604052809291908181526020018280546108899061566d565b80156108d65780601f106108ab576101008083540402835291602001916108d6565b820191906000526020600020905b8154815290600101906020018083116108b957829003601f168201915b505050505081526020016001820180546108ef9061566d565b80601f016020809104026020016040519081016040528092919081815260200182805461091b9061566d565b80156109685780601f1061093d57610100808354040283529160200191610968565b820191906000526020600020905b81548152906001019060200180831161094b57829003601f168201915b5050505050815260200160028201548152602001600382015481526020016004820180546109959061566d565b80601f01602080910402602001604051908101604052809291908181526020018280546109c19061566d565b8015610a0e5780601f106109e357610100808354040283529160200191610a0e565b820191906000526020600020905b8154815290600101906020018083116109f157829003601f168201915b505050505081526020016005820160009054906101000a900473ffffffffffffffffffffffffffffffffffffffff1673ffffffffffffffffffffffffffffffffffffffff1673ffffffffffffffffffffffffffffffffffffffff16815250509050919050565b600042905090565b60606000600667ffffffffffffffff811115610a9b57610a9a6153b6565b5b6040519080825280601f01601f191660200182016040528015610acd5781602001600182028036833780820191505090505b50905060005b6006811015610ba0576000601a4233600954604051602001610af793929190615707565b6040516020818303038152906040528051906020012060001c610b1a9190615773565b905060096000815480929190610b2f906157d3565b91905055506000604182610b43919061581b565b90508060f81b848481518110610b5c57610b5b61584f565b5b60200101907effffffffffffffffffffffffffffffffffffffffffffffffffffffffffffff1916908160001a90535050508080610b98906157d3565b915050610ad3565b508091505090565b6006602052806000526040600020600091509050806000018054610bcb9061566d565b80601f0160208091040260200160405190810160405280929190818152602001828054610bf79061566d565b8015610c445780601f10610c1957610100808354040283529160200191610c44565b820191906000526020600020905b815481529060010190602001808311610c2757829003601f168201915b505050505090806001018054610c599061566d565b80601f0160208091040260200160405190810160405280929190818152602001828054610c859061566d565b8015610cd25780601f10610ca757610100808354040283529160200191610cd2565b820191906000526020600020905b815481529060010190602001808311610cb557829003601f168201915b505050505090806002015490806003015490806004018054610cf39061566d565b80601f0160208091040260200160405190810160405280929190818152602001828054610d1f9061566d565b8015610d6c5780601f10610d4157610100808354040283529160200191610d6c565b820191906000526020600020905b815481529060010190602001808311610d4f57829003601f168201915b5050505050908060050160009054906101000a900473ffffffffffffffffffffffffffffffffffffffff16905086565b6008602052806000526040600020600091509050806000018054610dbf9061566d565b80601f0160208091040260200160405190810160405280929190818152602001828054610deb9061566d565b8015610e385780601f10610e0d57610100808354040283529160200191610e38565b820191906000526020600020905b815481529060010190602001808311610e1b57829003601f168201915b505050505090806001018054610e4d9061566d565b80601f0160208091040260200160405190810160405280929190818152602001828054610e799061566d565b8015610ec65780601f10610e9b57610100808354040283529160200191610ec6565b820191906000526020600020905b815481529060010190602001808311610ea957829003601f168201915b505050505090806002015490806003015490806004018054610ee79061566d565b80601f0160208091040260200160405190810160405280929190818152602001828054610f139061566d565b8015610f605780601f10610f3557610100808354040283529160200191610f60565b820191906000526020600020905b815481529060010190602001808311610f4357829003601f168201915b5050505050908060050160009054906101000a900473ffffffffffffffffffffffffffffffffffffffff16905086565b806000600260008381526020019081526020016000206040518060c0016040529081600082018054610fc19061566d565b80601f0160208091040260200160405190810160405280929190818152602001828054610fed9061566d565b801561103a5780601f1061100f5761010080835404028352916020019161103a565b820191906000526020600020905b81548152906001019060200180831161101d57829003601f168201915b505050505081526020016001820180546110539061566d565b80601f016020809104026020016040519081016040528092919081815260200182805461107f9061566d565b80156110cc5780601f106110a1576101008083540402835291602001916110cc565b820191906000526020600020905b8154815290600101906020018083116110af57829003601f168201915b5050505050815260200160028201548152602001600382015481526020016004820180546110f99061566d565b80601f01602080910402602001604051908101604052809291908181526020018280546111259061566d565b80156111725780601f1061114757610100808354040283529160200191611172565b820191906000526020600020905b81548152906001019060200180831161115557829003601f168201915b505050505081526020016005820160009054906101000a900473ffffffffffffffffffffffffffffffffffffffff1673ffffffffffffffffffffffffffffffffffffffff1673ffffffffffffffffffffffffffffffffffffffff168152505090503373ffffffffffffffffffffffffffffffffffffffff168160a0015173ffffffffffffffffffffffffffffffffffffffff161461123c576040517f30cd747100000000000000000000000000000000000000000000000000000000815260040160405180910390fd5b6000600360008581526020019081526020016000206040518060c001604052908160008201805461126c9061566d565b80601f01602080910402602001604051908101604052809291908181526020018280546112989061566d565b80156112e55780601f106112ba576101008083540402835291602001916112e5565b820191906000526020600020905b8154815290600101906020018083116112c857829003601f168201915b505050505081526020016001820180546112fe9061566d565b80601f016020809104026020016040519081016040528092919081815260200182805461132a9061566d565b80156113775780601f1061134c57610100808354040283529160200191611377565b820191906000526020600020905b81548152906001019060200180831161135a57829003601f168201915b5050505050815260200160028201548152602001600382015481526020016004820180546113a49061566d565b80601f01602080910402602001604051908101604052809291908181526020018280546113d09061566d565b801561141d5780601f106113f25761010080835404028352916020019161141d565b820191906000526020600020905b81548152906001019060200180831161140057829003601f168201915b505050505081526020016005820160009054906101000a900473ffffffffffffffffffffffffffffffffffffffff1673ffffffffffffffffffffffffffffffffffffffff1673ffffffffffffffffffffffffffffffffffffffff1681525050905060026000858152602001908152602001600020600080820160006114a29190614d20565b6001820160006114b29190614d20565b600282016000905560038201600090556004820160006114d29190614d20565b6005820160006101000a81549073ffffffffffffffffffffffffffffffffffffffff021916905550508060a0015173ffffffffffffffffffffffffffffffffffffffff16816020015160405161152891906158ba565b6040518091039020826000015160405161154291906158ba565b60405180910390207fdcdeb9d4d3fbcaaab380d777c1e5067b4a5d7dba5c8f09497a78a5c331796e666001600089815260200190815260200160002060405161158b9190615a99565b60405180910390a450505050565b6115a1614cd4565b600460008381526020019081526020016000206040518060c00160405290816000820180546115cf9061566d565b80601f01602080910402602001604051908101604052809291908181526020018280546115fb9061566d565b80156116485780601f1061161d57610100808354040283529160200191611648565b820191906000526020600020905b81548152906001019060200180831161162b57829003601f168201915b505050505081526020016001820180546116619061566d565b80601f016020809104026020016040519081016040528092919081815260200182805461168d9061566d565b80156116da5780601f106116af576101008083540402835291602001916116da565b820191906000526020600020905b8154815290600101906020018083116116bd57829003601f168201915b5050505050815260200160028201548152602001600382015481526020016004820180546117079061566d565b80601f01602080910402602001604051908101604052809291908181526020018280546117339061566d565b80156117805780601f1061175557610100808354040283529160200191611780565b820191906000526020600020905b81548152906001019060200180831161176357829003601f168201915b505050505081526020016005820160009054906101000a900473ffffffffffffffffffffffffffffffffffffffff1673ffffffffffffffffffffffffffffffffffffffff1673ffffffffffffffffffffffffffffffffffffffff16815250509050919050565b6117ee614cd4565b600660008381526020019081526020016000206040518060c001604052908160008201805461181c9061566d565b80601f01602080910402602001604051908101604052809291908181526020018280546118489061566d565b80156118955780601f1061186a57610100808354040283529160200191611895565b820191906000526020600020905b81548152906001019060200180831161187857829003601f168201915b505050505081526020016001820180546118ae9061566d565b80601f01602080910402602001604051908101604052809291908181526020018280546118da9061566d565b80156119275780601f106118fc57610100808354040283529160200191611927565b820191906000526020600020905b81548152906001019060200180831161190a57829003601f168201915b5050505050815260200160028201548152602001600382015481526020016004820180546119549061566d565b80601f01602080910402602001604051908101604052809291908181526020018280546119809061566d565b80156119cd5780601f106119a2576101008083540402835291602001916119cd565b820191906000526020600020905b8154815290600101906020018083116119b057829003601f168201915b505050505081526020016005820160009054906101000a900473ffffffffffffffffffffffffffffffffffffffff1673ffffffffffffffffffffffffffffffffffffffff1673ffffffffffffffffffffffffffffffffffffffff16815250509050919050565b611a3b614cd4565b600360008381526020019081526020016000206040518060c0016040529081600082018054611a699061566d565b80601f0160208091040260200160405190810160405280929190818152602001828054611a959061566d565b8015611ae25780601f10611ab757610100808354040283529160200191611ae2565b820191906000526020600020905b815481529060010190602001808311611ac557829003601f168201915b50505050508152602001600182018054611afb9061566d565b80601f0160208091040260200160405190810160405280929190818152602001828054611b279061566d565b8015611b745780601f10611b4957610100808354040283529160200191611b74565b820191906000526020600020905b815481529060010190602001808311611b5757829003601f168201915b505050505081526020016002820154815260200160038201548152602001600482018054611ba19061566d565b80601f0160208091040260200160405190810160405280929190818152602001828054611bcd9061566d565b8015611c1a5780601f10611bef57610100808354040283529160200191611c1a565b820191906000526020600020905b815481529060010190602001808311611bfd57829003601f168201915b505050505081526020016005820160009054906101000a900473ffffffffffffffffffffffffffffffffffffffff1673ffffffffffffffffffffffffffffffffffffffff1673ffffffffffffffffffffffffffffffffffffffff16815250509050919050565b611c88614d60565b600760008381526020019081526020016000206040518060a00160405290816000820160009054906101000a900473ffffffffffffffffffffffffffffffffffffffff1673ffffffffffffffffffffffffffffffffffffffff1673ffffffffffffffffffffffffffffffffffffffff1681526020016001820160009054906101000a900473ffffffffffffffffffffffffffffffffffffffff1673ffffffffffffffffffffffffffffffffffffffff1673ffffffffffffffffffffffffffffffffffffffff1681526020016002820160009054906101000a900473ffffffffffffffffffffffffffffffffffffffff1673ffffffffffffffffffffffffffffffffffffffff1673ffffffffffffffffffffffffffffffffffffffff1681526020016003820160009054906101000a900473ffffffffffffffffffffffffffffffffffffffff1673ffffffffffffffffffffffffffffffffffffffff1673ffffffffffffffffffffffffffffffffffffffff1681526020016004820160009054906101000a900473ffffffffffffffffffffffffffffffffffffffff1673ffffffffffffffffffffffffffffffffffffffff1673ffffffffffffffffffffffffffffffffffffffff16815250509050919050565b60076020528060005260406000206000915090508060000160009054906101000a900473ffffffffffffffffffffffffffffffffffffffff16908060010160009054906101000a900473ffffffffffffffffffffffffffffffffffffffff16908060020160009054906101000a900473ffffffffffffffffffffffffffffffffffffffff16908060030160009054906101000a900473ffffffffffffffffffffffffffffffffffffffff16908060040160009054906101000a900473ffffffffffffffffffffffffffffffffffffffff16905085565b6003602052806000526040600020600091509050806000018054611f549061566d565b80601f0160208091040260200160405190810160405280929190818152602001828054611f809061566d565b8015611fcd5780601f10611fa257610100808354040283529160200191611fcd565b820191906000526020600020905b815481529060010190602001808311611fb057829003601f168201915b505050505090806001018054611fe29061566d565b80601f016020809104026020016040519081016040528092919081815260200182805461200e9061566d565b801561205b5780601f106120305761010080835404028352916020019161205b565b820191906000526020600020905b81548152906001019060200180831161203e57829003601f168201915b50505050509080600201549080600301549080600401805461207c9061566d565b80601f01602080910402602001604051908101604052809291908181526020018280546120a89061566d565b80156120f55780601f106120ca576101008083540402835291602001916120f5565b820191906000526020600020905b8154815290600101906020018083116120d857829003601f168201915b5050505050908060050160009054906101000a900473ffffffffffffffffffffffffffffffffffffffff16905086565b60046020528060005260406000206000915090508060000180546121489061566d565b80601f01602080910402602001604051908101604052809291908181526020018280546121749061566d565b80156121c15780601f10612196576101008083540402835291602001916121c1565b820191906000526020600020905b8154815290600101906020018083116121a457829003601f168201915b5050505050908060010180546121d69061566d565b80601f01602080910402602001604051908101604052809291908181526020018280546122029061566d565b801561224f5780601f106122245761010080835404028352916020019161224f565b820191906000526020600020905b81548152906001019060200180831161223257829003601f168201915b5050505050908060020154908060030154908060040180546122709061566d565b80601f016020809104026020016040519081016040528092919081815260200182805461229c9061566d565b80156122e95780601f106122be576101008083540402835291602001916122e9565b820191906000526020600020905b8154815290600101906020018083116122cc57829003601f168201915b5050505050908060050160009054906101000a900473ffffffffffffffffffffffffffffffffffffffff16905086565b600560205280600052604060002060009150905080600001805461233c9061566d565b80601f01602080910402602001604051908101604052809291908181526020018280546123689061566d565b80156123b55780601f1061238a576101008083540402835291602001916123b5565b820191906000526020600020905b81548152906001019060200180831161239857829003601f168201915b5050505050908060010180546123ca9061566d565b80601f01602080910402602001604051908101604052809291908181526020018280546123f69061566d565b80156124435780601f1061241857610100808354040283529160200191612443565b820191906000526020600020905b81548152906001019060200180831161242657829003601f168201915b5050505050908060020154908060030154908060040180546124649061566d565b80601f01602080910402602001604051908101604052809291908181526020018280546124909061566d565b80156124dd5780601f106124b2576101008083540402835291602001916124dd565b820191906000526020600020905b8154815290600101906020018083116124c057829003601f168201915b5050505050908060050160009054906101000a900473ffffffffffffffffffffffffffffffffffffffff16905086565b612515614cd4565b600260008381526020019081526020016000206040518060c00160405290816000820180546125439061566d565b80601f016020809104026020016040519081016040528092919081815260200182805461256f9061566d565b80156125bc5780601f10612591576101008083540402835291602001916125bc565b820191906000526020600020905b81548152906001019060200180831161259f57829003601f168201915b505050505081526020016001820180546125d59061566d565b80601f01602080910402602001604051908101604052809291908181526020018280546126019061566d565b801561264e5780601f106126235761010080835404028352916020019161264e565b820191906000526020600020905b81548152906001019060200180831161263157829003601f168201915b50505050508152602001600282015481526020016003820154815260200160048201805461267b9061566d565b80601f01602080910402602001604051908101604052809291908181526020018280546126a79061566d565b80156126f45780601f106126c9576101008083540402835291602001916126f4565b820191906000526020600020905b8154815290600101906020018083116126d757829003601f168201915b505050505081526020016005820160009054906101000a900473ffffffffffffffffffffffffffffffffffffffff1673ffffffffffffffffffffffffffffffffffffffff1673ffffffffffffffffffffffffffffffffffffffff16815250509050919050565b6001602052816000526040600020818154811061277657600080fd5b90600052602060002090600202016000915091505080600001805461279a9061566d565b80601f01602080910402602001604051908101604052809291908181526020018280546127c69061566d565b80156128135780601f106127e857610100808354040283529160200191612813565b820191906000526020600020905b8154815290600101906020018083116127f657829003601f168201915b5050505050908060010154905082565b600060405180604001604052806040518060400160405280601d81526020017f4469737472696275746f72207472616e7320746f2052655461696c657200000081525081526020014281525090506001600083815260200190815260200160002081908060018154018082558091505060019003906000526020600020906002020160009091909190915060008201518160000190816128c39190615c52565b506020820151816001015550506000600660008481526020019081526020016000206040518060c00160405290816000820180546129009061566d565b80601f016020809104026020016040519081016040528092919081815260200182805461292c9061566d565b80156129795780601f1061294e57610100808354040283529160200191612979565b820191906000526020600020905b81548152906001019060200180831161295c57829003601f168201915b505050505081526020016001820180546129929061566d565b80601f01602080910402602001604051908101604052809291908181526020018280546129be9061566d565b8015612a0b5780601f106129e057610100808354040283529160200191612a0b565b820191906000526020600020905b8154815290600101906020018083116129ee57829003601f168201915b505050505081526020016002820154815260200160038201548152602001600482018054612a389061566d565b80601f0160208091040260200160405190810160405280929190818152602001828054612a649061566d565b8015612ab15780601f10612a8657610100808354040283529160200191612ab1565b820191906000526020600020905b815481529060010190602001808311612a9457829003601f168201915b505050505081526020016005820160009054906101000a900473ffffffffffffffffffffffffffffffffffffffff1673ffffffffffffffffffffffffffffffffffffffff1673ffffffffffffffffffffffffffffffffffffffff1681525050905060013414612b4c576040517fa2c2d5c600000000000000000000000000000000000000000000000000000000815260040160405180910390fd5b6005600084815260200190815260200160002060008082016000612b709190614d20565b600182016000612b809190614d20565b60028201600090556003820160009055600482016000612ba09190614d20565b6005820160006101000a81549073ffffffffffffffffffffffffffffffffffffffff021916905550506040518060c0016040528082600001518152602001826020015181526020018260400151815260200182606001518152602001826080015181526020013373ffffffffffffffffffffffffffffffffffffffff16815250600660008581526020019081526020016000206000820151816000019081612c489190615c52565b506020820151816001019081612c5e9190615c52565b5060408201518160020155606082015181600301556080820151816004019081612c889190615c52565b5060a08201518160050160006101000a81548173ffffffffffffffffffffffffffffffffffffffff021916908373ffffffffffffffffffffffffffffffffffffffff16021790555090505033600760008360400151815260200190815260200160002060040160006101000a81548173ffffffffffffffffffffffffffffffffffffffff021916908373ffffffffffffffffffffffffffffffffffffffff16021790555060008160a0015173ffffffffffffffffffffffffffffffffffffffff166001604051612d5790615d55565b60006040518083038185875af1925050503d8060008114612d94576040519150601f19603f3d011682016040523d82523d6000602084013e612d99565b606091505b5050905080612ddd576040517f08c379a0000000000000000000000000000000000000000000000000000000008152600401612dd490615db6565b60405180910390fd5b3373ffffffffffffffffffffffffffffffffffffffff168260200151604051612e0691906158ba565b60405180910390208360000151604051612e2091906158ba565b60405180910390207f7f4d22e3102db62d96401baafb1a65816d3a54672c2a8e18483d3108b239f8678560600151600160008a8152602001908152602001600020604051612e6f929190615dd6565b60405180910390a450505050565b600080815480929190612e8f906157d3565b9190505550600080549050600060405180604001604052806040518060400160405280600b81526020017f4974656d204c697374656400000000000000000000000000000000000000000081525081526020014281525090506000612ef2610a7c565b90506040518060c001604052808781526020018281526020018481526020018681526020018581526020013373ffffffffffffffffffffffffffffffffffffffff16815250600260008581526020019081526020016000206000820151816000019081612f5f9190615c52565b506020820151816001019081612f759190615c52565b5060408201518160020155606082015181600301556080820151816004019081612f9f9190615c52565b5060a08201518160050160006101000a81548173ffffffffffffffffffffffffffffffffffffffff021916908373ffffffffffffffffffffffffffffffffffffffff16021790555090505060016000848152602001908152602001600020829080600181540180825580915050600190039060005260206000209060020201600090919091909150600082015181600001908161303c9190615c52565b50602082015181600101555050336007600085815260200190815260200160002060000160006101000a81548173ffffffffffffffffffffffffffffffffffffffff021916908373ffffffffffffffffffffffffffffffffffffffff1602179055503373ffffffffffffffffffffffffffffffffffffffff16816040516130c391906158ba565b6040518091039020876040516130d991906158ba565b60405180910390207f20eac5418bb9f3da26761791a2254a88704da79ce4b3f4e4d437bbc28a44068c8860016000898152602001908152602001600020604051613124929190615dd6565b60405180910390a4505050505050565b6000600260008381526020019081526020016000206040518060c00160405290816000820180546131649061566d565b80601f01602080910402602001604051908101604052809291908181526020018280546131909061566d565b80156131dd5780601f106131b2576101008083540402835291602001916131dd565b820191906000526020600020905b8154815290600101906020018083116131c057829003601f168201915b505050505081526020016001820180546131f69061566d565b80601f01602080910402602001604051908101604052809291908181526020018280546132229061566d565b801561326f5780601f106132445761010080835404028352916020019161326f565b820191906000526020600020905b81548152906001019060200180831161325257829003601f168201915b50505050508152602001600282015481526020016003820154815260200160048201805461329c9061566d565b80601f01602080910402602001604051908101604052809291908181526020018280546132c89061566d565b80156133155780601f106132ea57610100808354040283529160200191613315565b820191906000526020600020905b8154815290600101906020018083116132f857829003601f168201915b505050505081526020016005820160009054906101000a900473ffffffffffffffffffffffffffffffffffffffff1673ffffffffffffffffffffffffffffffffffffffff1673ffffffffffffffffffffffffffffffffffffffff16815250509050600260008381526020019081526020016000206000808201600061339a9190614d20565b6001820160006133aa9190614d20565b600282016000905560038201600090556004820160006133ca9190614d20565b6005820160006101000a81549073ffffffffffffffffffffffffffffffffffffffff021916905550506040518060c0016040528082600001518152602001826020015181526020018260400151815260200182606001518152602001826080015181526020013373ffffffffffffffffffffffffffffffffffffffff168152506003600084815260200190815260200160002060008201518160000190816134729190615c52565b5060208201518160010190816134889190615c52565b50604082015181600201556060820151816003015560808201518160040190816134b29190615c52565b5060a08201518160050160006101000a81548173ffffffffffffffffffffffffffffffffffffffff021916908373ffffffffffffffffffffffffffffffffffffffff160217905550905050600060405180604001604052806040518060400160405280601c81526020017f5472616e73666572206f6620736565647320746f206661726d65727300000000815250815260200142815250905060016000848152602001908152602001600020819080600181540180825580915050600190039060005260206000209060020201600090919091909150600082015181600001908161359d9190615c52565b5060208201518160010155505033600760008460400151815260200190815260200160002060010160006101000a81548173ffffffffffffffffffffffffffffffffffffffff021916908373ffffffffffffffffffffffffffffffffffffffff16021790555060008260a0015173ffffffffffffffffffffffffffffffffffffffff16600160405161362e90615d55565b60006040518083038185875af1925050503d806000811461366b576040519150601f19603f3d011682016040523d82523d6000602084013e613670565b606091505b50509050806136b4576040517f08c379a00000000000000000000000000000000000000000000000000000000081526004016136ab90615db6565b60405180910390fd5b3373ffffffffffffffffffffffffffffffffffffffff1683602001516040516136dd91906158ba565b604051809103902084600001516040516136f791906158ba565b60405180910390207f7f4d22e3102db62d96401baafb1a65816d3a54672c2a8e18483d3108b239f8678660600151600160008a8152602001908152602001600020604051613746929190615dd6565b60405180910390a450505050565b600060405180604001604052806040518060400160405280601e81526020017f50726f636573736f72207472616e7320746f204469737472696275746f72000081525081526020014281525090506001600083815260200190815260200160002081908060018154018082558091505060019003906000526020600020906002020160009091909190915060008201518160000190816137f49190615c52565b506020820151816001015550506000600560008481526020019081526020016000206040518060c00160405290816000820180546138319061566d565b80601f016020809104026020016040519081016040528092919081815260200182805461385d9061566d565b80156138aa5780601f1061387f576101008083540402835291602001916138aa565b820191906000526020600020905b81548152906001019060200180831161388d57829003601f168201915b505050505081526020016001820180546138c39061566d565b80601f01602080910402602001604051908101604052809291908181526020018280546138ef9061566d565b801561393c5780601f106139115761010080835404028352916020019161393c565b820191906000526020600020905b81548152906001019060200180831161391f57829003601f168201915b5050505050815260200160028201548152602001600382015481526020016004820180546139699061566d565b80601f01602080910402602001604051908101604052809291908181526020018280546139959061566d565b80156139e25780601f106139b7576101008083540402835291602001916139e2565b820191906000526020600020905b8154815290600101906020018083116139c557829003601f168201915b505050505081526020016005820160009054906101000a900473ffffffffffffffffffffffffffffffffffffffff1673ffffffffffffffffffffffffffffffffffffffff1673ffffffffffffffffffffffffffffffffffffffff1681525050905060013414613a7d576040517fa2c2d5c600000000000000000000000000000000000000000000000000000000815260040160405180910390fd5b6004600084815260200190815260200160002060008082016000613aa19190614d20565b600182016000613ab19190614d20565b60028201600090556003820160009055600482016000613ad19190614d20565b6005820160006101000a81549073ffffffffffffffffffffffffffffffffffffffff021916905550506040518060c0016040528082600001518152602001826020015181526020018260400151815260200182606001518152602001826080015181526020013373ffffffffffffffffffffffffffffffffffffffff16815250600560008581526020019081526020016000206000820151816000019081613b799190615c52565b506020820151816001019081613b8f9190615c52565b5060408201518160020155606082015181600301556080820151816004019081613bb99190615c52565b5060a08201518160050160006101000a81548173ffffffffffffffffffffffffffffffffffffffff021916908373ffffffffffffffffffffffffffffffffffffffff16021790555090505033600760008360400151815260200190815260200160002060030160006101000a81548173ffffffffffffffffffffffffffffffffffffffff021916908373ffffffffffffffffffffffffffffffffffffffff16021790555060008160a0015173ffffffffffffffffffffffffffffffffffffffff166001604051613c8890615d55565b60006040518083038185875af1925050503d8060008114613cc5576040519150601f19603f3d011682016040523d82523d6000602084013e613cca565b606091505b5050905080613d0e576040517f08c379a0000000000000000000000000000000000000000000000000000000008152600401613d0590615db6565b60405180910390fd5b3373ffffffffffffffffffffffffffffffffffffffff168260200151604051613d3791906158ba565b60405180910390208360000151604051613d5191906158ba565b60405180910390207f7f4d22e3102db62d96401baafb1a65816d3a54672c2a8e18483d3108b239f8678560600151600160008a8152602001908152602001600020604051613da0929190615dd6565b60405180910390a450505050565b816000600260008381526020019081526020016000206040518060c0016040529081600082018054613ddf9061566d565b80601f0160208091040260200160405190810160405280929190818152602001828054613e0b9061566d565b8015613e585780601f10613e2d57610100808354040283529160200191613e58565b820191906000526020600020905b815481529060010190602001808311613e3b57829003601f168201915b50505050508152602001600182018054613e719061566d565b80601f0160208091040260200160405190810160405280929190818152602001828054613e9d9061566d565b8015613eea5780601f10613ebf57610100808354040283529160200191613eea565b820191906000526020600020905b815481529060010190602001808311613ecd57829003601f168201915b505050505081526020016002820154815260200160038201548152602001600482018054613f179061566d565b80601f0160208091040260200160405190810160405280929190818152602001828054613f439061566d565b8015613f905780601f10613f6557610100808354040283529160200191613f90565b820191906000526020600020905b815481529060010190602001808311613f7357829003601f168201915b505050505081526020016005820160009054906101000a900473ffffffffffffffffffffffffffffffffffffffff1673ffffffffffffffffffffffffffffffffffffffff1673ffffffffffffffffffffffffffffffffffffffff168152505090503373ffffffffffffffffffffffffffffffffffffffff168160a0015173ffffffffffffffffffffffffffffffffffffffff161461405a576040517f30cd747100000000000000000000000000000000000000000000000000000000815260040160405180910390fd5b428360200151111561406b57600080fd5b6001600085815260200190815260200160002083908060018154018082558091505060019003906000526020600020906002020160009091909190915060008201518160000190816140bd9190615c52565b5060208201518160010155505050505050565b600060405180604001604052806040518060400160405280601981526020017f4661726d6572207472616e7320746f2050726f636573736f720000000000000081525081526020014281525090506001600083815260200190815260200160002081908060018154018082558091505060019003906000526020600020906002020160009091909190915060008201518160000190816141709190615c52565b506020820151816001015550506000600460008481526020019081526020016000206040518060c00160405290816000820180546141ad9061566d565b80601f01602080910402602001604051908101604052809291908181526020018280546141d99061566d565b80156142265780601f106141fb57610100808354040283529160200191614226565b820191906000526020600020905b81548152906001019060200180831161420957829003601f168201915b5050505050815260200160018201805461423f9061566d565b80601f016020809104026020016040519081016040528092919081815260200182805461426b9061566d565b80156142b85780601f1061428d576101008083540402835291602001916142b8565b820191906000526020600020905b81548152906001019060200180831161429b57829003601f168201915b5050505050815260200160028201548152602001600382015481526020016004820180546142e59061566d565b80601f01602080910402602001604051908101604052809291908181526020018280546143119061566d565b801561435e5780601f106143335761010080835404028352916020019161435e565b820191906000526020600020905b81548152906001019060200180831161434157829003601f168201915b505050505081526020016005820160009054906101000a900473ffffffffffffffffffffffffffffffffffffffff1673ffffffffffffffffffffffffffffffffffffffff1673ffffffffffffffffffffffffffffffffffffffff1681525050905060036000848152602001908152602001600020600080820160006143e39190614d20565b6001820160006143f39190614d20565b600282016000905560038201600090556004820160006144139190614d20565b6005820160006101000a81549073ffffffffffffffffffffffffffffffffffffffff021916905550506040518060c0016040528082600001518152602001826020015181526020018260400151815260200182606001518152602001826080015181526020013373ffffffffffffffffffffffffffffffffffffffff168152506004600085815260200190815260200160002060008201518160000190816144bb9190615c52565b5060208201518160010190816144d19190615c52565b50604082015181600201556060820151816003015560808201518160040190816144fb9190615c52565b5060a08201518160050160006101000a81548173ffffffffffffffffffffffffffffffffffffffff021916908373ffffffffffffffffffffffffffffffffffffffff16021790555090505033600760008360400151815260200190815260200160002060020160006101000a81548173ffffffffffffffffffffffffffffffffffffffff021916908373ffffffffffffffffffffffffffffffffffffffff1602179055503373ffffffffffffffffffffffffffffffffffffffff1681602001516040516145c891906158ba565b604051809103902082600001516040516145e291906158ba565b60405180910390207f7f4d22e3102db62d96401baafb1a65816d3a54672c2a8e18483d3108b239f867846060015160016000898152602001908152602001600020604051614631929190615dd6565b60405180910390a4505050565b6000600560008381526020019081526020016000206040518060c001604052908160008201805461466e9061566d565b80601f016020809104026020016040519081016040528092919081815260200182805461469a9061566d565b80156146e75780601f106146bc576101008083540402835291602001916146e7565b820191906000526020600020905b8154815290600101906020018083116146ca57829003601f168201915b505050505081526020016001820180546147009061566d565b80601f016020809104026020016040519081016040528092919081815260200182805461472c9061566d565b80156147795780601f1061474e57610100808354040283529160200191614779565b820191906000526020600020905b81548152906001019060200180831161475c57829003601f168201915b5050505050815260200160028201548152602001600382015481526020016004820180546147a69061566d565b80601f01602080910402602001604051908101604052809291908181526020018280546147d29061566d565b801561481f5780601f106147f45761010080835404028352916020019161481f565b820191906000526020600020905b81548152906001019060200180831161480257829003601f168201915b505050505081526020016005820160009054906101000a900473ffffffffffffffffffffffffffffffffffffffff1673ffffffffffffffffffffffffffffffffffffffff1673ffffffffffffffffffffffffffffffffffffffff16815250509050600134146148ba576040517fa2c2d5c600000000000000000000000000000000000000000000000000000000815260040160405180910390fd5b60056000838152602001908152602001600020600080820160006148de9190614d20565b6001820160006148ee9190614d20565b6002820160009055600382016000905560048201600061490e9190614d20565b6005820160006101000a81549073ffffffffffffffffffffffffffffffffffffffff0219169055505033600760008360400151815260200190815260200160002060040160006101000a81548173ffffffffffffffffffffffffffffffffffffffff021916908373ffffffffffffffffffffffffffffffffffffffff16021790555060008160a0015173ffffffffffffffffffffffffffffffffffffffff1660016040516149bb90615d55565b60006040518083038185875af1925050503d80600081146149f8576040519150601f19603f3d011682016040523d82523d6000602084013e6149fd565b606091505b5050905080614a41576040517f08c379a0000000000000000000000000000000000000000000000000000000008152600401614a3890615db6565b60405180910390fd5b3373ffffffffffffffffffffffffffffffffffffffff168260200151604051614a6a91906158ba565b60405180910390208360000151604051614a8491906158ba565b60405180910390207f652c81b37dc15aa7410a81542f602f4985daeaf59bbc04851844738231b30e67856060015160016000898152602001908152602001600020604051614ad3929190615dd6565b60405180910390a4505050565b6002602052806000526040600020600091509050806000018054614b039061566d565b80601f0160208091040260200160405190810160405280929190818152602001828054614b2f9061566d565b8015614b7c5780601f10614b5157610100808354040283529160200191614b7c565b820191906000526020600020905b815481529060010190602001808311614b5f57829003601f168201915b505050505090806001018054614b919061566d565b80601f0160208091040260200160405190810160405280929190818152602001828054614bbd9061566d565b8015614c0a5780601f10614bdf57610100808354040283529160200191614c0a565b820191906000526020600020905b815481529060010190602001808311614bed57829003601f168201915b505050505090806002015490806003015490806004018054614c2b9061566d565b80601f0160208091040260200160405190810160405280929190818152602001828054614c579061566d565b8015614ca45780601f10614c7957610100808354040283529160200191614ca4565b820191906000526020600020905b815481529060010190602001808311614c8757829003601f168201915b5050505050908060050160009054906101000a900473ffffffffffffffffffffffffffffffffffffffff16905086565b6040518060c001604052806060815260200160608152602001600081526020016000815260200160608152602001600073ffffffffffffffffffffffffffffffffffffffff1681525090565b508054614d2c9061566d565b6000825580601f10614d3e5750614d5d565b601f016020900490600052602060002090810190614d5c9190614dfd565b5b50565b6040518060a00160405280600073ffffffffffffffffffffffffffffffffffffffff168152602001600073ffffffffffffffffffffffffffffffffffffffff168152602001600073ffffffffffffffffffffffffffffffffffffffff168152602001600073ffffffffffffffffffffffffffffffffffffffff168152602001600073ffffffffffffffffffffffffffffffffffffffff1681525090565b5b80821115614e16576000816000905550600101614dfe565b5090565b6000819050919050565b614e2d81614e1a565b82525050565b6000602082019050614e486000830184614e24565b92915050565b6000604051905090565b600080fd5b600080fd5b614e6b81614e1a565b8114614e7657600080fd5b50565b600081359050614e8881614e62565b92915050565b600060208284031215614ea457614ea3614e58565b5b6000614eb284828501614e79565b91505092915050565b600081519050919050565b600082825260208201905092915050565b6000819050602082019050919050565b600081519050919050565b600082825260208201905092915050565b60005b83811015614f21578082015181840152602081019050614f06565b60008484015250505050565b6000601f19601f8301169050919050565b6000614f4982614ee7565b614f538185614ef2565b9350614f63818560208601614f03565b614f6c81614f2d565b840191505092915050565b614f8081614e1a565b82525050565b60006040830160008301518482036000860152614fa38282614f3e565b9150506020830151614fb86020860182614f77565b508091505092915050565b6000614fcf8383614f86565b905092915050565b6000602082019050919050565b6000614fef82614ebb565b614ff98185614ec6565b93508360208202850161500b85614ed7565b8060005b8581101561504757848403895281516150288582614fc3565b945061503383614fd7565b925060208a0199505060018101905061500f565b50829750879550505050505092915050565b600060208201905081810360008301526150738184614fe4565b905092915050565b600073ffffffffffffffffffffffffffffffffffffffff82169050919050565b60006150a68261507b565b9050919050565b6150b68161509b565b82525050565b600060c08301600083015184820360008601526150d98282614f3e565b915050602083015184820360208601526150f38282614f3e565b91505060408301516151086040860182614f77565b50606083015161511b6060860182614f77565b50608083015184820360808601526151338282614f3e565b91505060a083015161514860a08601826150ad565b508091505092915050565b6000602082019050818103600083015261516d81846150bc565b905092915050565b600082825260208201905092915050565b600061519182614ee7565b61519b8185615175565b93506151ab818560208601614f03565b6151b481614f2d565b840191505092915050565b600060208201905081810360008301526151d98184615186565b905092915050565b6151ea8161509b565b82525050565b600060c082019050818103600083015261520a8189615186565b9050818103602083015261521e8188615186565b905061522d6040830187614e24565b61523a6060830186614e24565b818103608083015261524c8185615186565b905061525b60a08301846151e1565b979650505050505050565b60a08201600082015161527c60008501826150ad565b50602082015161528f60208501826150ad565b5060408201516152a260408501826150ad565b5060608201516152b560608501826150ad565b5060808201516152c860808501826150ad565b50505050565b600060a0820190506152e36000830184615266565b92915050565b600060a0820190506152fe60008301886151e1565b61530b60208301876151e1565b61531860408301866151e1565b61532560608301856151e1565b61533260808301846151e1565b9695505050505050565b6000806040838503121561535357615352614e58565b5b600061536185828601614e79565b925050602061537285828601614e79565b9150509250929050565b600060408201905081810360008301526153968185615186565b90506153a56020830184614e24565b9392505050565b600080fd5b600080fd5b7f4e487b7100000000000000000000000000000000000000000000000000000000600052604160045260246000fd5b6153ee82614f2d565b810181811067ffffffffffffffff8211171561540d5761540c6153b6565b5b80604052505050565b6000615420614e4e565b905061542c82826153e5565b919050565b600067ffffffffffffffff82111561544c5761544b6153b6565b5b61545582614f2d565b9050602081019050919050565b82818337600083830152505050565b600061548461547f84615431565b615416565b9050828152602081018484840111156154a05761549f6153b1565b5b6154ab848285615462565b509392505050565b600082601f8301126154c8576154c76153ac565b5b81356154d8848260208601615471565b91505092915050565b6000806000606084860312156154fa576154f9614e58565b5b600084013567ffffffffffffffff81111561551857615517614e5d565b5b615524868287016154b3565b935050602061553586828701614e79565b925050604084013567ffffffffffffffff81111561555657615555614e5d565b5b615562868287016154b3565b9150509250925092565b600080fd5b600080fd5b60006040828403121561558c5761558b61556c565b5b6155966040615416565b9050600082013567ffffffffffffffff8111156155b6576155b5615571565b5b6155c2848285016154b3565b60008301525060206155d684828501614e79565b60208301525092915050565b600080604083850312156155f9576155f8614e58565b5b600061560785828601614e79565b925050602083013567ffffffffffffffff81111561562857615627614e5d565b5b61563485828601615576565b9150509250929050565b7f4e487b7100000000000000000000000000000000000000000000000000000000600052602260045260246000fd5b6000600282049050600182168061568557607f821691505b6020821081036156985761569761563e565b5b50919050565b6000819050919050565b6156b96156b482614e1a565b61569e565b82525050565b60008160601b9050919050565b60006156d7826156bf565b9050919050565b60006156e9826156cc565b9050919050565b6157016156fc8261509b565b6156de565b82525050565b600061571382866156a8565b60208201915061572382856156f0565b60148201915061573382846156a8565b602082019150819050949350505050565b7f4e487b7100000000000000000000000000000000000000000000000000000000600052601260045260246000fd5b600061577e82614e1a565b915061578983614e1a565b92508261579957615798615744565b5b828206905092915050565b7f4e487b7100000000000000000000000000000000000000000000000000000000600052601160045260246000fd5b60006157de82614e1a565b91507fffffffffffffffffffffffffffffffffffffffffffffffffffffffffffffffff82036158105761580f6157a4565b5b600182019050919050565b600061582682614e1a565b915061583183614e1a565b9250828201905080821115615849576158486157a4565b5b92915050565b7f4e487b7100000000000000000000000000000000000000000000000000000000600052603260045260246000fd5b600081905092915050565b600061589482614ee7565b61589e818561587e565b93506158ae818560208601614f03565b80840191505092915050565b60006158c68284615889565b915081905092915050565b600081549050919050565b60008190508160005260206000209050919050565b60008190508160005260206000209050919050565b600081546159138161566d565b61591d8186614ef2565b94506001821660008114615938576001811461594e57615981565b60ff198316865281151560200286019350615981565b615957856158f1565b60005b838110156159795781548189015260018201915060208101905061595a565b808801955050505b50505092915050565b60008160001c9050919050565b6000819050919050565b60006159b46159af8361598a565b615997565b9050919050565b600060408301600080840185830360008701526159d88382615906565b925050600184015490506159eb816159a1565b6159f86020870182614f77565b50819250505092915050565b6000615a1083836159bb565b905092915050565b6000600282019050919050565b6000615a30826158d1565b615a3a8185614ec6565b935083602082028501615a4c856158dc565b8060005b85811015615a8757848403895281615a688582615a04565b9450615a7383615a18565b925060208a01995050600181019050615a50565b50829750879550505050505092915050565b60006020820190508181036000830152615ab38184615a25565b905092915050565b60006020601f8301049050919050565b600082821b905092915050565b600060088302615b087fffffffffffffffffffffffffffffffffffffffffffffffffffffffffffffffff82615acb565b615b128683615acb565b95508019841693508086168417925050509392505050565b6000819050919050565b6000615b4f615b4a615b4584614e1a565b615b2a565b614e1a565b9050919050565b6000819050919050565b615b6983615b34565b615b7d615b7582615b56565b848454615ad8565b825550505050565b600090565b615b92615b85565b615b9d818484615b60565b505050565b5b81811015615bc157615bb6600082615b8a565b600181019050615ba3565b5050565b601f821115615c0657615bd7816158f1565b615be084615abb565b81016020851015615bef578190505b615c03615bfb85615abb565b830182615ba2565b50505b505050565b600082821c905092915050565b6000615c2960001984600802615c0b565b1980831691505092915050565b6000615c428383615c18565b9150826002028217905092915050565b615c5b82614ee7565b67ffffffffffffffff811115615c7457615c736153b6565b5b615c7e825461566d565b615c89828285615bc5565b600060209050601f831160018114615cbc5760008415615caa578287015190505b615cb48582615c36565b865550615d1c565b601f198416615cca866158f1565b60005b82811015615cf257848901518255600182019150602085019450602081019050615ccd565b86831015615d0f5784890151615d0b601f891682615c18565b8355505b6001600288020188555050505b505050505050565b600081905092915050565b50565b6000615d3f600083615d24565b9150615d4a82615d2f565b600082019050919050565b6000615d6082615d32565b9150819050919050565b7f63616c6c206661696c6564000000000000000000000000000000000000000000600082015250565b6000615da0600b83615175565b9150615dab82615d6a565b602082019050919050565b60006020820190508181036000830152615dcf81615d93565b9050919050565b6000604082019050615deb6000830185614e24565b8181036020830152615dfd8184615a25565b9050939250505056fea2646970667358221220b7bb556ba77ba9c47810222a17e691db6910c97f8125c807aec9797a8a1a283364736f6c63430008130033",
  "immutableReferences": {},
  "source": "// SPDX-License-Identifier: MIT\r\npragma solidity ^0.8.17;\r\n\r\n// Errors\r\nerror NotListed();\r\nerror PriceMustNotZero();\r\nerror PriceNotMet();\r\nerror NotOwner();\r\n\r\ncontract SupplyChain {\r\n    uint256 public s_tokenIDs;\r\n    struct Data {\r\n        string data;\r\n        uint256 created_at;\r\n    }\r\n\r\n    // State Variables\r\n    struct Product {\r\n        string productName;\r\n        string barcode;\r\n        uint256 tokenId;\r\n        uint256 productQuantity;\r\n        string cateory;\r\n        address seller;\r\n    }\r\n    struct Owners {\r\n        address providerAddress;\r\n        address farmerAddress;\r\n        address processorAddress;\r\n        address distributerAddress;\r\n        address retailerAddress;\r\n    }\r\n\r\n    // Mappings - To keep track of Products and it's owners\r\n    // Farmers inventory - tokenId => Product\r\n    mapping(uint256 => Data[]) public s_DataProduct;\r\n\r\n    mapping(uint256 => Product) public s_providerinventory;\r\n\r\n    mapping(uint256 => Product) public s_farmerInventory;\r\n    // Distributer inventory - tokenId => Product\r\n    mapping(uint256 => Product) public s_processorInventory;\r\n\r\n    mapping(uint256 => Product) public s_distributerInventory;\r\n    // Token Id to all the owners\r\n    mapping(uint256 => Product) public s_retailerInventory;\r\n\r\n    mapping(uint256 => Owners) public s_productOwners;\r\n    // Product Name => List of products in distributers inventory\r\n    // Because retailer may not know the token id\r\n    mapping(uint256 => Product) public s_UserInventory;\r\n\r\n    // Events - fire events on state changes\r\n    event ItemListed(\r\n        string indexed productName,\r\n        string indexed barcode,\r\n        uint256 productQuantity,\r\n        address indexed seller,\r\n        Data[] s_DataProduct\r\n    );\r\n    event ItemBought(\r\n        string indexed productName,\r\n        string indexed barcode,\r\n        uint256 productQuantity,\r\n        address indexed seller,\r\n        Data[] s_DataProduct\r\n    );\r\n    event ItemCanceled(\r\n        string indexed productName,\r\n        string indexed barcode,\r\n        address indexed seller,\r\n        Data[] s_DataProduct\r\n    );\r\n    event ItemUpdated(\r\n        string indexed productName,\r\n        string indexed barcode,\r\n        address indexed seller,\r\n        Data[] s_DataProduct\r\n    );\r\n    event ItemPurchased(\r\n        string indexed productName,\r\n        string indexed barcode,\r\n        uint256 productQuantity,\r\n        address indexed seller,\r\n        Data[] s_DataProduct\r\n    );\r\n\r\n    // Modifiers\r\n    // Item not listed Yet\r\n  \r\n\r\n    // Can be called only by owner\r\n    modifier isOwner(uint256 _tokenID) {\r\n        Product memory product = s_providerinventory[_tokenID];\r\n        if (product.seller != msg.sender) {\r\n            revert NotOwner();\r\n        }\r\n        _;\r\n    }\r\n\r\n    uint randNonce = 0;\r\n\r\n    function generateRandomString() public returns (string memory) {\r\n        bytes memory randomBytes = new bytes(6);\r\n\r\n        for (uint i = 0; i < 6; i++) {\r\n            uint randomNumber = uint(\r\n                keccak256(\r\n                    abi.encodePacked(block.timestamp, msg.sender, randNonce)\r\n                )\r\n            ) % 26;\r\n            randNonce++;\r\n            uint8 convertedRandomNumber = uint8(randomNumber + 65);\r\n            randomBytes[i] = bytes1(convertedRandomNumber);\r\n        }\r\n\r\n        return string(randomBytes);\r\n    }\r\n\r\n    function getCurrentTime() public view returns (uint256) {\r\n        return block.timestamp;\r\n    }\r\n\r\n  \r\n\r\n\r\n    function listItem(\r\n        string memory _ProductName,\r\n        uint256 _quantity,\r\n        string memory _category\r\n    ) external {\r\n       s_tokenIDs++;\r\n        uint256 currentID = s_tokenIDs;\r\n        Data memory newData = Data(\"Item Listed\", block.timestamp);\r\n        // s_providerinventory[currentID].dataproduct.push(newData);\r\n        string memory barcode = generateRandomString();\r\n        s_providerinventory[currentID] = Product(\r\n            _ProductName,\r\n            barcode,\r\n            currentID,\r\n            _quantity,\r\n             _category,\r\n            msg.sender\r\n        );\r\n        s_DataProduct[currentID].push(newData);\r\n        s_productOwners[currentID].providerAddress = msg.sender;\r\n        emit ItemListed(\r\n            _ProductName,\r\n            barcode,\r\n            _quantity,\r\n            msg.sender,\r\n            s_DataProduct[currentID]\r\n        );\r\n    }\r\n    // Cp nht data cho sn phm\r\n    function updateInfo(\r\n        uint256 _tokenID,\r\n        Data memory _data\r\n    ) external isOwner(_tokenID) {\r\n        require(_data.created_at <= block.timestamp);\r\n        s_DataProduct[_tokenID].push(_data);\r\n    }\r\n\r\n    /// @notice Cancel the listing of a product\r\n    /// @param _tokenID - The token id of the product to be canceled\r\n    function cancelItem(\r\n        uint256 _tokenID\r\n    ) external  isOwner(_tokenID) {\r\n        Product memory product = s_farmerInventory[_tokenID];\r\n        delete (s_providerinventory[_tokenID]);\r\n\r\n        emit ItemCanceled(\r\n            product.productName,\r\n            product.barcode,\r\n            product.seller,\r\n            s_DataProduct[_tokenID]\r\n        );\r\n    }\r\n\r\n    // Distributer functions\r\n    /// @notice Buy the product from farmer and add it into distributer's inventory\r\n    /// @param _tokenID - The token id of the product to be bought\r\n    function buyItemfromfamer(\r\n        uint256 _tokenID\r\n    ) external payable {\r\n        Data memory newdata = Data(\r\n            \"Farmer trans to Processor\",\r\n            block.timestamp\r\n        );\r\n        s_DataProduct[_tokenID].push(newdata);\r\n\r\n        Product memory product = s_processorInventory[_tokenID];\r\n        delete (s_farmerInventory[_tokenID]);\r\n        s_processorInventory[_tokenID] = Product(\r\n            product.productName,\r\n            product.barcode,\r\n            product.tokenId,\r\n            product.productQuantity,\r\n            product.cateory,\r\n            msg.sender\r\n            \r\n        );\r\n        s_productOwners[product.tokenId].processorAddress = msg.sender;\r\n        \r\n         emit ItemBought(\r\n            product.productName,\r\n            product.barcode,\r\n            product.productQuantity,\r\n            \r\n            msg.sender,\r\n            s_DataProduct[_tokenID]\r\n        );\r\n    }\r\n\r\n    function BuyItemfromProvider(\r\n        uint256 _tokenID\r\n    ) external payable {\r\n        Product memory product = s_providerinventory[_tokenID];\r\n        \r\n\r\ndelete (s_providerinventory[_tokenID]);\r\n        s_farmerInventory[_tokenID] = Product(\r\n            product.productName,\r\n            product.barcode,\r\n            product.tokenId,\r\n            product.productQuantity,\r\n            \r\n            product.cateory,\r\n            msg.sender\r\n            \r\n        );\r\n        Data memory newdata = Data(\r\n            \"Transfer of seeds to farmers\",\r\n            block.timestamp\r\n        );\r\n        s_DataProduct[_tokenID].push(newdata);\r\n        s_productOwners[product.tokenId].farmerAddress = msg.sender;\r\n        (bool success, ) = payable(product.seller).call{\r\n            value: 1\r\n        }(\"\");\r\n        require(success, \"call failed\");\r\n        emit ItemBought(\r\n            product.productName,\r\n            product.barcode,\r\n            product.productQuantity,\r\n            \r\n            msg.sender,\r\n            s_DataProduct[_tokenID]\r\n        );\r\n    }\r\n\r\n    function buyItemfromProcessor(\r\n        uint256 _tokenID\r\n    ) external payable {\r\n        Data memory newdata = Data(\r\n            \"Processor trans to Distributor\",\r\n            block.timestamp\r\n        );\r\n        s_DataProduct[_tokenID].push(newdata);\r\n\r\n        Product memory product = s_distributerInventory[_tokenID];\r\n        if (msg.value != 1) {\r\n            revert PriceNotMet();\r\n        }\r\n        delete (s_processorInventory[_tokenID]);\r\n        s_distributerInventory[_tokenID] = Product(\r\n            product.productName,\r\n            product.barcode,\r\n            product.tokenId,\r\n            product.productQuantity,\r\n            \r\n            product.cateory,\r\n            msg.sender\r\n            \r\n        );\r\n        s_productOwners[product.tokenId].distributerAddress = msg.sender;\r\n        (bool success, ) = payable(product.seller).call{\r\n            value: 1\r\n        }(\"\");\r\n        require(success, \"call failed\");\r\n        emit ItemBought(\r\n            product.productName,\r\n            product.barcode,\r\n            product.productQuantity,\r\n            \r\n            msg.sender,\r\n            s_DataProduct[_tokenID]\r\n        );\r\n    }\r\n\r\n    function buyItemfromdistributor(\r\n        uint256 _tokenID\r\n    ) external payable{\r\n        Data memory newdata = Data(\r\n            \"Distributor trans to ReTailer\",\r\n            block.timestamp\r\n        );\r\n        s_DataProduct[_tokenID].push(newdata);\r\n\r\n        Product memory product = s_retailerInventory[_tokenID];\r\n        if (msg.value != 1) {\r\n            revert PriceNotMet();\r\n        }\r\n        delete (s_distributerInventory[_tokenID]);\r\n        s_retailerInventory[_tokenID] = Product(\r\n            product.productName,\r\n            product.barcode,\r\n            product.tokenId,\r\n            product.productQuantity,\r\n           \r\n            product.cateory,\r\n            msg.sender\r\n            \r\n        );\r\n        s_productOwners[product.tokenId].retailerAddress = msg.sender;\r\n        (bool success, ) = payable(product.seller).call{\r\n            value: 1\r\n        }(\"\");\r\n        require(success, \"call failed\");\r\n        emit ItemBought(\r\n            product.productName,\r\n            product.barcode,\r\n            product.productQuantity,\r\n            \r\n            msg.sender,\r\n            s_DataProduct[_tokenID]\r\n        );\r\n    }\r\n\r\n    // Retailer's Functions\r\n    /// @notice Purchase the item from distributer\r\n    /// @param _tokenID - The token id of the product to be bought\r\n    function purchaseItem(uint256 _tokenID) external payable {\r\n        Product memory product = s_distributerInventory[_tokenID];\r\n        if (msg.value != 1) {\r\n            revert PriceNotMet();\r\n        }\r\n        delete (s_distributerInventory[_tokenID]);\r\n        \r\n        s_productOwners[product.tokenId].retailerAddress = msg.sender;\r\n        (bool success, ) = payable(product.seller).call{\r\n            value: 1\r\n        }(\"\");\r\n        require(success, \"call failed\");\r\n        emit ItemPurchased(\r\n            product.productName,\r\n            product.barcode,\r\n            product.productQuantity,\r\n            msg.sender,\r\n            s_DataProduct[_tokenID]\r\n        );\r\n    }\r\n\r\n    // Getter functions\r\n\r\n    function getProviderListing(\r\n        uint256 _tokenID\r\n    ) external view returns (Product memory) {\r\n        return s_providerinventory[_tokenID];\r\n    }\r\n\r\n    function getFarmerInventory(\r\n        uint256 _tokenID\r\n    ) external view returns (Product memory) {\r\n        return s_farmerInventory[_tokenID];\r\n    }\r\n\r\n    function getProcessorInventory(\r\n        uint256 _tokenID\r\n    ) external view returns (Product memory) {\r\n        return s_processorInventory[_tokenID];\r\n    }\r\n\r\n    function getDistributorInventory(\r\n        uint256 _tokenID\r\n    ) external view returns (Product memory) {\r\n        return s_distributerInventory[_tokenID];\r\n    }\r\n\r\n    function getRetailerInventory(\r\n        uint256 _tokenID\r\n    ) external view returns (Product memory) {\r\n        return s_retailerInventory[_tokenID];\r\n    }\r\n\r\n    function getAllOwners(\r\n        uint256 _tokenID\r\n    ) external view returns (Owners memory) {\r\n        return s_productOwners[_tokenID];\r\n    }\r\n\r\n  \r\n\r\n    function getTokenId() external view returns (uint256) {\r\n        return s_tokenIDs;\r\n    }\r\n    function getData(\r\n        uint256 _tokenID\r\n    ) external view returns (Data[] memory){\r\n        return s_DataProduct[_tokenID];\r\n    }\r\n}\r\n",
  "sourcePath": "E:\\Supply-Chain-DDD\\Suppy-Chain\\server\\contracts\\SupplyChain.sol",
  "compiler": {
    "name": "solc",
    "version": "0.8.19+commit.7dd6d404.Emscripten.clang"
  },
  "schemaVersion": "3.4.13",
  "updatedAt": "2023-04-10T20:54:27.781Z",
  "networkType": "ethereum",
  "devdoc": {
    "kind": "dev",
    "methods": {
      "buyItemfromfamer(uint256)": {
        "params": {
          "_tokenID": "- The token id of the product to be bought"
        }
      },
      "cancelItem(uint256)": {
        "params": {
          "_tokenID": "- The token id of the product to be canceled"
        }
      },
      "purchaseItem(uint256)": {
        "params": {
          "_tokenID": "- The token id of the product to be bought"
        }
      }
    },
    "version": 1
  },
  "userdoc": {
    "kind": "user",
    "methods": {
      "buyItemfromfamer(uint256)": {
        "notice": "Buy the product from farmer and add it into distributer's inventory"
      },
      "cancelItem(uint256)": {
        "notice": "Cancel the listing of a product"
      },
      "purchaseItem(uint256)": {
        "notice": "Purchase the item from distributer"
      }
    },
    "version": 1
  }
}