{
  "contractName": "SupplyChain",
  "abi": [
    {
      "inputs": [],
      "name": "NotOwner",
      "type": "error"
    },
    {
      "inputs": [],
      "name": "PriceNotMet",
      "type": "error"
    },
    {
      "anonymous": false,
      "inputs": [
        {
          "indexed": true,
          "internalType": "string",
          "name": "productName",
          "type": "string"
        },
        {
          "indexed": true,
          "internalType": "string",
          "name": "barcode",
          "type": "string"
        },
        {
          "indexed": false,
          "internalType": "uint256",
          "name": "productQuantity",
          "type": "uint256"
        },
        {
          "indexed": true,
          "internalType": "address",
          "name": "seller",
          "type": "address"
        },
        {
          "components": [
            {
              "internalType": "string",
              "name": "data",
              "type": "string"
            },
            {
              "internalType": "uint256",
              "name": "created_at",
              "type": "uint256"
            }
          ],
          "indexed": false,
          "internalType": "struct SupplyChain.Data[]",
          "name": "s_DataProduct",
          "type": "tuple[]"
        }
      ],
      "name": "ItemBought",
      "type": "event"
    },
    {
      "anonymous": false,
      "inputs": [
        {
          "indexed": true,
          "internalType": "string",
          "name": "productName",
          "type": "string"
        },
        {
          "indexed": true,
          "internalType": "string",
          "name": "barcode",
          "type": "string"
        },
        {
          "indexed": true,
          "internalType": "address",
          "name": "seller",
          "type": "address"
        },
        {
          "components": [
            {
              "internalType": "string",
              "name": "data",
              "type": "string"
            },
            {
              "internalType": "uint256",
              "name": "created_at",
              "type": "uint256"
            }
          ],
          "indexed": false,
          "internalType": "struct SupplyChain.Data[]",
          "name": "s_DataProduct",
          "type": "tuple[]"
        }
      ],
      "name": "ItemCanceled",
      "type": "event"
    },
    {
      "anonymous": false,
      "inputs": [
        {
          "indexed": true,
          "internalType": "string",
          "name": "productName",
          "type": "string"
        },
        {
          "indexed": true,
          "internalType": "string",
          "name": "barcode",
          "type": "string"
        },
        {
          "indexed": false,
          "internalType": "uint256",
          "name": "productQuantity",
          "type": "uint256"
        },
        {
          "indexed": true,
          "internalType": "address",
          "name": "seller",
          "type": "address"
        },
        {
          "components": [
            {
              "internalType": "string",
              "name": "data",
              "type": "string"
            },
            {
              "internalType": "uint256",
              "name": "created_at",
              "type": "uint256"
            }
          ],
          "indexed": false,
          "internalType": "struct SupplyChain.Data[]",
          "name": "s_DataProduct",
          "type": "tuple[]"
        }
      ],
      "name": "ItemListed",
      "type": "event"
    },
    {
      "anonymous": false,
      "inputs": [
        {
          "indexed": true,
          "internalType": "string",
          "name": "productName",
          "type": "string"
        },
        {
          "indexed": true,
          "internalType": "string",
          "name": "barcode",
          "type": "string"
        },
        {
          "indexed": false,
          "internalType": "uint256",
          "name": "productQuantity",
          "type": "uint256"
        },
        {
          "indexed": true,
          "internalType": "address",
          "name": "seller",
          "type": "address"
        },
        {
          "components": [
            {
              "internalType": "string",
              "name": "data",
              "type": "string"
            },
            {
              "internalType": "uint256",
              "name": "created_at",
              "type": "uint256"
            }
          ],
          "indexed": false,
          "internalType": "struct SupplyChain.Data[]",
          "name": "s_DataProduct",
          "type": "tuple[]"
        }
      ],
      "name": "ItemPurchased",
      "type": "event"
    },
    {
      "anonymous": false,
      "inputs": [
        {
          "indexed": true,
          "internalType": "string",
          "name": "productName",
          "type": "string"
        },
        {
          "indexed": true,
          "internalType": "string",
          "name": "barcode",
          "type": "string"
        },
        {
          "indexed": true,
          "internalType": "address",
          "name": "seller",
          "type": "address"
        },
        {
          "components": [
            {
              "internalType": "string",
              "name": "data",
              "type": "string"
            },
            {
              "internalType": "uint256",
              "name": "created_at",
              "type": "uint256"
            }
          ],
          "indexed": false,
          "internalType": "struct SupplyChain.Data[]",
          "name": "s_DataProduct",
          "type": "tuple[]"
        }
      ],
      "name": "ItemUpdated",
      "type": "event"
    },
    {
      "inputs": [
        {
          "internalType": "uint256",
          "name": "",
          "type": "uint256"
        },
        {
          "internalType": "uint256",
          "name": "",
          "type": "uint256"
        }
      ],
      "name": "s_DataProduct",
      "outputs": [
        {
          "internalType": "string",
          "name": "data",
          "type": "string"
        },
        {
          "internalType": "uint256",
          "name": "created_at",
          "type": "uint256"
        }
      ],
      "stateMutability": "view",
      "type": "function"
    },
    {
      "inputs": [
        {
          "internalType": "uint256",
          "name": "",
          "type": "uint256"
        }
      ],
      "name": "s_UserInventory",
      "outputs": [
        {
          "internalType": "string",
          "name": "productName",
          "type": "string"
        },
        {
          "internalType": "string",
          "name": "barcode",
          "type": "string"
        },
        {
          "internalType": "uint256",
          "name": "tokenId",
          "type": "uint256"
        },
        {
          "internalType": "uint256",
          "name": "productQuantity",
          "type": "uint256"
        },
        {
          "internalType": "string",
          "name": "cateory",
          "type": "string"
        },
        {
          "internalType": "address",
          "name": "seller",
          "type": "address"
        }
      ],
      "stateMutability": "view",
      "type": "function"
    },
    {
      "inputs": [
        {
          "internalType": "uint256",
          "name": "",
          "type": "uint256"
        }
      ],
      "name": "s_distributerInventory",
      "outputs": [
        {
          "internalType": "string",
          "name": "productName",
          "type": "string"
        },
        {
          "internalType": "string",
          "name": "barcode",
          "type": "string"
        },
        {
          "internalType": "uint256",
          "name": "tokenId",
          "type": "uint256"
        },
        {
          "internalType": "uint256",
          "name": "productQuantity",
          "type": "uint256"
        },
        {
          "internalType": "string",
          "name": "cateory",
          "type": "string"
        },
        {
          "internalType": "address",
          "name": "seller",
          "type": "address"
        }
      ],
      "stateMutability": "view",
      "type": "function"
    },
    {
      "inputs": [
        {
          "internalType": "uint256",
          "name": "",
          "type": "uint256"
        }
      ],
      "name": "s_farmerInventory",
      "outputs": [
        {
          "internalType": "string",
          "name": "productName",
          "type": "string"
        },
        {
          "internalType": "string",
          "name": "barcode",
          "type": "string"
        },
        {
          "internalType": "uint256",
          "name": "tokenId",
          "type": "uint256"
        },
        {
          "internalType": "uint256",
          "name": "productQuantity",
          "type": "uint256"
        },
        {
          "internalType": "string",
          "name": "cateory",
          "type": "string"
        },
        {
          "internalType": "address",
          "name": "seller",
          "type": "address"
        }
      ],
      "stateMutability": "view",
      "type": "function"
    },
    {
      "inputs": [
        {
          "internalType": "uint256",
          "name": "",
          "type": "uint256"
        }
      ],
      "name": "s_processorInventory",
      "outputs": [
        {
          "internalType": "string",
          "name": "productName",
          "type": "string"
        },
        {
          "internalType": "string",
          "name": "barcode",
          "type": "string"
        },
        {
          "internalType": "uint256",
          "name": "tokenId",
          "type": "uint256"
        },
        {
          "internalType": "uint256",
          "name": "productQuantity",
          "type": "uint256"
        },
        {
          "internalType": "string",
          "name": "cateory",
          "type": "string"
        },
        {
          "internalType": "address",
          "name": "seller",
          "type": "address"
        }
      ],
      "stateMutability": "view",
      "type": "function"
    },
    {
      "inputs": [
        {
          "internalType": "uint256",
          "name": "",
          "type": "uint256"
        }
      ],
      "name": "s_productOwners",
      "outputs": [
        {
          "internalType": "address",
          "name": "providerAddress",
          "type": "address"
        },
        {
          "internalType": "address",
          "name": "farmerAddress",
          "type": "address"
        },
        {
          "internalType": "address",
          "name": "processorAddress",
          "type": "address"
        },
        {
          "internalType": "address",
          "name": "distributerAddress",
          "type": "address"
        },
        {
          "internalType": "address",
          "name": "retailerAddress",
          "type": "address"
        }
      ],
      "stateMutability": "view",
      "type": "function"
    },
    {
      "inputs": [
        {
          "internalType": "uint256",
          "name": "",
          "type": "uint256"
        }
      ],
      "name": "s_providerinventory",
      "outputs": [
        {
          "internalType": "string",
          "name": "productName",
          "type": "string"
        },
        {
          "internalType": "string",
          "name": "barcode",
          "type": "string"
        },
        {
          "internalType": "uint256",
          "name": "tokenId",
          "type": "uint256"
        },
        {
          "internalType": "uint256",
          "name": "productQuantity",
          "type": "uint256"
        },
        {
          "internalType": "string",
          "name": "cateory",
          "type": "string"
        },
        {
          "internalType": "address",
          "name": "seller",
          "type": "address"
        }
      ],
      "stateMutability": "view",
      "type": "function"
    },
    {
      "inputs": [
        {
          "internalType": "uint256",
          "name": "",
          "type": "uint256"
        }
      ],
      "name": "s_retailerInventory",
      "outputs": [
        {
          "internalType": "string",
          "name": "productName",
          "type": "string"
        },
        {
          "internalType": "string",
          "name": "barcode",
          "type": "string"
        },
        {
          "internalType": "uint256",
          "name": "tokenId",
          "type": "uint256"
        },
        {
          "internalType": "uint256",
          "name": "productQuantity",
          "type": "uint256"
        },
        {
          "internalType": "string",
          "name": "cateory",
          "type": "string"
        },
        {
          "internalType": "address",
          "name": "seller",
          "type": "address"
        }
      ],
      "stateMutability": "view",
      "type": "function"
    },
    {
      "inputs": [],
      "name": "s_tokenIDs",
      "outputs": [
        {
          "internalType": "uint256",
          "name": "",
          "type": "uint256"
        }
      ],
      "stateMutability": "view",
      "type": "function"
    },
    {
      "inputs": [],
      "name": "generateRandomString",
      "outputs": [
        {
          "internalType": "string",
          "name": "",
          "type": "string"
        }
      ],
      "stateMutability": "nonpayable",
      "type": "function"
    },
    {
      "inputs": [],
      "name": "getCurrentTime",
      "outputs": [
        {
          "internalType": "uint256",
          "name": "",
          "type": "uint256"
        }
      ],
      "stateMutability": "view",
      "type": "function"
    },
    {
      "inputs": [
        {
          "internalType": "string",
          "name": "_ProductName",
          "type": "string"
        },
        {
          "internalType": "uint256",
          "name": "_quantity",
          "type": "uint256"
        },
        {
          "internalType": "string",
          "name": "_category",
          "type": "string"
        }
      ],
      "name": "listItem",
      "outputs": [],
      "stateMutability": "nonpayable",
      "type": "function"
    },
    {
      "inputs": [
        {
          "internalType": "uint256",
          "name": "_tokenID",
          "type": "uint256"
        },
        {
          "internalType": "string",
          "name": "_data",
          "type": "string"
        },
        {
          "internalType": "uint256",
          "name": "_time",
          "type": "uint256"
        }
      ],
      "name": "updateInfo",
      "outputs": [],
      "stateMutability": "nonpayable",
      "type": "function"
    },
    {
      "inputs": [
        {
          "internalType": "uint256",
          "name": "_tokenID",
          "type": "uint256"
        }
      ],
      "name": "cancelItem",
      "outputs": [],
      "stateMutability": "nonpayable",
      "type": "function"
    },
    {
      "inputs": [
        {
          "internalType": "uint256",
          "name": "_tokenID",
          "type": "uint256"
        }
      ],
      "name": "buyItemfromfamer",
      "outputs": [],
      "stateMutability": "payable",
      "type": "function"
    },
    {
      "inputs": [
        {
          "internalType": "uint256",
          "name": "_tokenID",
          "type": "uint256"
        }
      ],
      "name": "BuyItemfromProvider",
      "outputs": [],
      "stateMutability": "payable",
      "type": "function"
    },
    {
      "inputs": [
        {
          "internalType": "uint256",
          "name": "_tokenID",
          "type": "uint256"
        }
      ],
      "name": "buyItemfromProcessor",
      "outputs": [],
      "stateMutability": "payable",
      "type": "function"
    },
    {
      "inputs": [
        {
          "internalType": "uint256",
          "name": "_tokenID",
          "type": "uint256"
        }
      ],
      "name": "buyItemfromdistributor",
      "outputs": [],
      "stateMutability": "payable",
      "type": "function"
    },
    {
      "inputs": [
        {
          "internalType": "uint256",
          "name": "_tokenID",
          "type": "uint256"
        }
      ],
      "name": "purchaseItem",
      "outputs": [],
      "stateMutability": "payable",
      "type": "function"
    },
    {
      "inputs": [
        {
          "internalType": "uint256",
          "name": "_tokenID",
          "type": "uint256"
        }
      ],
      "name": "getProviderListing",
      "outputs": [
        {
          "components": [
            {
              "internalType": "string",
              "name": "productName",
              "type": "string"
            },
            {
              "internalType": "string",
              "name": "barcode",
              "type": "string"
            },
            {
              "internalType": "uint256",
              "name": "tokenId",
              "type": "uint256"
            },
            {
              "internalType": "uint256",
              "name": "productQuantity",
              "type": "uint256"
            },
            {
              "internalType": "string",
              "name": "cateory",
              "type": "string"
            },
            {
              "internalType": "address",
              "name": "seller",
              "type": "address"
            }
          ],
          "internalType": "struct SupplyChain.Product",
          "name": "",
          "type": "tuple"
        }
      ],
      "stateMutability": "view",
      "type": "function"
    },
    {
      "inputs": [
        {
          "internalType": "uint256",
          "name": "_tokenID",
          "type": "uint256"
        }
      ],
      "name": "getFarmerInventory",
      "outputs": [
        {
          "components": [
            {
              "internalType": "string",
              "name": "productName",
              "type": "string"
            },
            {
              "internalType": "string",
              "name": "barcode",
              "type": "string"
            },
            {
              "internalType": "uint256",
              "name": "tokenId",
              "type": "uint256"
            },
            {
              "internalType": "uint256",
              "name": "productQuantity",
              "type": "uint256"
            },
            {
              "internalType": "string",
              "name": "cateory",
              "type": "string"
            },
            {
              "internalType": "address",
              "name": "seller",
              "type": "address"
            }
          ],
          "internalType": "struct SupplyChain.Product",
          "name": "",
          "type": "tuple"
        }
      ],
      "stateMutability": "view",
      "type": "function"
    },
    {
      "inputs": [
        {
          "internalType": "uint256",
          "name": "_tokenID",
          "type": "uint256"
        }
      ],
      "name": "getProcessorInventory",
      "outputs": [
        {
          "components": [
            {
              "internalType": "string",
              "name": "productName",
              "type": "string"
            },
            {
              "internalType": "string",
              "name": "barcode",
              "type": "string"
            },
            {
              "internalType": "uint256",
              "name": "tokenId",
              "type": "uint256"
            },
            {
              "internalType": "uint256",
              "name": "productQuantity",
              "type": "uint256"
            },
            {
              "internalType": "string",
              "name": "cateory",
              "type": "string"
            },
            {
              "internalType": "address",
              "name": "seller",
              "type": "address"
            }
          ],
          "internalType": "struct SupplyChain.Product",
          "name": "",
          "type": "tuple"
        }
      ],
      "stateMutability": "view",
      "type": "function"
    },
    {
      "inputs": [
        {
          "internalType": "uint256",
          "name": "_tokenID",
          "type": "uint256"
        }
      ],
      "name": "getDistributorInventory",
      "outputs": [
        {
          "components": [
            {
              "internalType": "string",
              "name": "productName",
              "type": "string"
            },
            {
              "internalType": "string",
              "name": "barcode",
              "type": "string"
            },
            {
              "internalType": "uint256",
              "name": "tokenId",
              "type": "uint256"
            },
            {
              "internalType": "uint256",
              "name": "productQuantity",
              "type": "uint256"
            },
            {
              "internalType": "string",
              "name": "cateory",
              "type": "string"
            },
            {
              "internalType": "address",
              "name": "seller",
              "type": "address"
            }
          ],
          "internalType": "struct SupplyChain.Product",
          "name": "",
          "type": "tuple"
        }
      ],
      "stateMutability": "view",
      "type": "function"
    },
    {
      "inputs": [
        {
          "internalType": "uint256",
          "name": "_tokenID",
          "type": "uint256"
        }
      ],
      "name": "getRetailerInventory",
      "outputs": [
        {
          "components": [
            {
              "internalType": "string",
              "name": "productName",
              "type": "string"
            },
            {
              "internalType": "string",
              "name": "barcode",
              "type": "string"
            },
            {
              "internalType": "uint256",
              "name": "tokenId",
              "type": "uint256"
            },
            {
              "internalType": "uint256",
              "name": "productQuantity",
              "type": "uint256"
            },
            {
              "internalType": "string",
              "name": "cateory",
              "type": "string"
            },
            {
              "internalType": "address",
              "name": "seller",
              "type": "address"
            }
          ],
          "internalType": "struct SupplyChain.Product",
          "name": "",
          "type": "tuple"
        }
      ],
      "stateMutability": "view",
      "type": "function"
    },
    {
      "inputs": [
        {
          "internalType": "uint256",
          "name": "_tokenID",
          "type": "uint256"
        }
      ],
      "name": "getAllOwners",
      "outputs": [
        {
          "components": [
            {
              "internalType": "address",
              "name": "providerAddress",
              "type": "address"
            },
            {
              "internalType": "address",
              "name": "farmerAddress",
              "type": "address"
            },
            {
              "internalType": "address",
              "name": "processorAddress",
              "type": "address"
            },
            {
              "internalType": "address",
              "name": "distributerAddress",
              "type": "address"
            },
            {
              "internalType": "address",
              "name": "retailerAddress",
              "type": "address"
            }
          ],
          "internalType": "struct SupplyChain.Owners",
          "name": "",
          "type": "tuple"
        }
      ],
      "stateMutability": "view",
      "type": "function"
    },
    {
      "inputs": [],
      "name": "getTokenId",
      "outputs": [
        {
          "internalType": "uint256",
          "name": "",
          "type": "uint256"
        }
      ],
      "stateMutability": "view",
      "type": "function"
    },
    {
      "inputs": [
        {
          "internalType": "uint256",
          "name": "_tokenID",
          "type": "uint256"
        }
      ],
      "name": "getData",
      "outputs": [
        {
          "components": [
            {
              "internalType": "string",
              "name": "data",
              "type": "string"
            },
            {
              "internalType": "uint256",
              "name": "created_at",
              "type": "uint256"
            }
          ],
          "internalType": "struct SupplyChain.Data[]",
          "name": "",
          "type": "tuple[]"
        }
      ],
      "stateMutability": "view",
      "type": "function"
    }
  ],
  "bytecode": "0x6080604052600060095534801561001557600080fd5b50615b4280620000266000396000f3fe60806040526004361061019c5760003560e01c806361253a04116100ec578063896a06aa1161008a578063a5567c0c11610064578063a5567c0c14610674578063ca0970de14610690578063d38ea5bf146106ac578063d5a1e4c2146106c85761019c565b8063896a06aa146106135780638d2500141461062f578063a0dbeeb3146106585761019c565b8063751ef232116100c6578063751ef2321461051457806376146252146105565780637691a028146105985780637e09bb23146105d55761019c565b806361253a0414610454578063718abbbc1461049157806373a1bd81146104d25761019c565b80632ffd4b491161015957806351563f8e1161013357806351563f8e14610374578063589ab0311461039d57806359dd5543146103da5780636070e8c6146104175761019c565b80632ffd4b49146102c757806347341d02146103095780634dc1778c146103325761019c565b8063010a38f5146101a15780630178fe3f146101cc5780630b7698c214610209578063226d22031461023457806329cb924d146102715780632a7487cb1461029c575b600080fd5b3480156101ad57600080fd5b506101b661070a565b6040516101c39190614b9c565b60405180910390f35b3480156101d857600080fd5b506101f360048036038101906101ee9190614bf7565b610713565b6040516102009190614dc2565b60405180910390f35b34801561021557600080fd5b5061021e610821565b60405161022b9190614b9c565b60405180910390f35b34801561024057600080fd5b5061025b60048036038101906102569190614bf7565b610827565b6040516102689190614ebc565b60405180910390f35b34801561027d57600080fd5b50610286610a74565b6040516102939190614b9c565b60405180910390f35b3480156102a857600080fd5b506102b1610a7c565b6040516102be9190614f28565b60405180910390f35b3480156102d357600080fd5b506102ee60048036038101906102e99190614bf7565b610ba8565b60405161030096959493929190614f59565b60405180910390f35b34801561031557600080fd5b50610330600480360381019061032b9190615104565b610d9c565b005b34801561033e57600080fd5b5061035960048036038101906103549190614bf7565b610e27565b60405161036b96959493929190614f59565b60405180910390f35b34801561038057600080fd5b5061039b60048036038101906103969190614bf7565b61101b565b005b3480156103a957600080fd5b506103c460048036038101906103bf9190614bf7565b611624565b6040516103d19190614ebc565b60405180910390f35b3480156103e657600080fd5b5061040160048036038101906103fc9190614bf7565b611871565b60405161040e9190614ebc565b60405180910390f35b34801561042357600080fd5b5061043e60048036038101906104399190614bf7565b611abe565b60405161044b9190614ebc565b60405180910390f35b34801561046057600080fd5b5061047b60048036038101906104769190614bf7565b611d0b565b60405161048891906151db565b60405180910390f35b34801561049d57600080fd5b506104b860048036038101906104b39190614bf7565b611ee6565b6040516104c99594939291906151f6565b60405180910390f35b3480156104de57600080fd5b506104f960048036038101906104f49190614bf7565b611fbc565b60405161050b96959493929190614f59565b60405180910390f35b34801561052057600080fd5b5061053b60048036038101906105369190614bf7565b6121b0565b60405161054d96959493929190614f59565b60405180910390f35b34801561056257600080fd5b5061057d60048036038101906105789190614bf7565b6123a4565b60405161058f96959493929190614f59565b60405180910390f35b3480156105a457600080fd5b506105bf60048036038101906105ba9190614bf7565b612598565b6040516105cc9190614ebc565b60405180910390f35b3480156105e157600080fd5b506105fc60048036038101906105f79190615249565b6127e5565b60405161060a929190615289565b60405180910390f35b61062d60048036038101906106289190614bf7565b6128ae565b005b34801561063b57600080fd5b50610656600480360381019061065191906152b9565b612f08565b005b610672600480360381019061066d9190614bf7565b6131bf565b005b61068e60048036038101906106899190614bf7565b6137df565b005b6106aa60048036038101906106a59190614bf7565b613e39565b005b6106c660048036038101906106c19190614bf7565b6143a7565b005b3480156106d457600080fd5b506106ef60048036038101906106ea9190614bf7565b614849565b60405161070196959493929190614f59565b60405180910390f35b60008054905090565b606060016000838152602001908152602001600020805480602002602001604051908101604052809291908181526020016000905b82821015610816578382906000526020600020906002020160405180604001604052908160008201805461077b90615373565b80601f01602080910402602001604051908101604052809291908181526020018280546107a790615373565b80156107f45780601f106107c9576101008083540402835291602001916107f4565b820191906000526020600020905b8154815290600101906020018083116107d757829003601f168201915b5050505050815260200160018201548152505081526020019060010190610748565b505050509050919050565b60005481565b61082f614a3d565b600560008381526020019081526020016000206040518060c001604052908160008201805461085d90615373565b80601f016020809104026020016040519081016040528092919081815260200182805461088990615373565b80156108d65780601f106108ab576101008083540402835291602001916108d6565b820191906000526020600020905b8154815290600101906020018083116108b957829003601f168201915b505050505081526020016001820180546108ef90615373565b80601f016020809104026020016040519081016040528092919081815260200182805461091b90615373565b80156109685780601f1061093d57610100808354040283529160200191610968565b820191906000526020600020905b81548152906001019060200180831161094b57829003601f168201915b50505050508152602001600282015481526020016003820154815260200160048201805461099590615373565b80601f01602080910402602001604051908101604052809291908181526020018280546109c190615373565b8015610a0e5780601f106109e357610100808354040283529160200191610a0e565b820191906000526020600020905b8154815290600101906020018083116109f157829003601f168201915b505050505081526020016005820160009054906101000a900473ffffffffffffffffffffffffffffffffffffffff1673ffffffffffffffffffffffffffffffffffffffff1673ffffffffffffffffffffffffffffffffffffffff16815250509050919050565b600042905090565b60606000600667ffffffffffffffff811115610a9b57610a9a614fd9565b5b6040519080825280601f01601f191660200182016040528015610acd5781602001600182028036833780820191505090505b50905060005b6006811015610ba0576000601a4233600954604051602001610af79392919061540d565b6040516020818303038152906040528051906020012060001c610b1a9190615479565b905060096000815480929190610b2f906154d9565b91905055506000604182610b439190615521565b90508060f81b848481518110610b5c57610b5b615555565b5b60200101907effffffffffffffffffffffffffffffffffffffffffffffffffffffffffffff1916908160001a90535050508080610b98906154d9565b915050610ad3565b508091505090565b6006602052806000526040600020600091509050806000018054610bcb90615373565b80601f0160208091040260200160405190810160405280929190818152602001828054610bf790615373565b8015610c445780601f10610c1957610100808354040283529160200191610c44565b820191906000526020600020905b815481529060010190602001808311610c2757829003601f168201915b505050505090806001018054610c5990615373565b80601f0160208091040260200160405190810160405280929190818152602001828054610c8590615373565b8015610cd25780601f10610ca757610100808354040283529160200191610cd2565b820191906000526020600020905b815481529060010190602001808311610cb557829003601f168201915b505050505090806002015490806003015490806004018054610cf390615373565b80601f0160208091040260200160405190810160405280929190818152602001828054610d1f90615373565b8015610d6c5780601f10610d4157610100808354040283529160200191610d6c565b820191906000526020600020905b815481529060010190602001808311610d4f57829003601f168201915b5050505050908060050160009054906101000a900473ffffffffffffffffffffffffffffffffffffffff16905086565b42811115610da957600080fd5b60006040518060400160405280848152602001838152509050600160008581526020019081526020016000208190806001815401808255809150506001900390600052602060002090600202016000909190919091506000820151816000019081610e149190615730565b5060208201518160010155505050505050565b6008602052806000526040600020600091509050806000018054610e4a90615373565b80601f0160208091040260200160405190810160405280929190818152602001828054610e7690615373565b8015610ec35780601f10610e9857610100808354040283529160200191610ec3565b820191906000526020600020905b815481529060010190602001808311610ea657829003601f168201915b505050505090806001018054610ed890615373565b80601f0160208091040260200160405190810160405280929190818152602001828054610f0490615373565b8015610f515780601f10610f2657610100808354040283529160200191610f51565b820191906000526020600020905b815481529060010190602001808311610f3457829003601f168201915b505050505090806002015490806003015490806004018054610f7290615373565b80601f0160208091040260200160405190810160405280929190818152602001828054610f9e90615373565b8015610feb5780601f10610fc057610100808354040283529160200191610feb565b820191906000526020600020905b815481529060010190602001808311610fce57829003601f168201915b5050505050908060050160009054906101000a900473ffffffffffffffffffffffffffffffffffffffff16905086565b806000600260008381526020019081526020016000206040518060c001604052908160008201805461104c90615373565b80601f016020809104026020016040519081016040528092919081815260200182805461107890615373565b80156110c55780601f1061109a576101008083540402835291602001916110c5565b820191906000526020600020905b8154815290600101906020018083116110a857829003601f168201915b505050505081526020016001820180546110de90615373565b80601f016020809104026020016040519081016040528092919081815260200182805461110a90615373565b80156111575780601f1061112c57610100808354040283529160200191611157565b820191906000526020600020905b81548152906001019060200180831161113a57829003601f168201915b50505050508152602001600282015481526020016003820154815260200160048201805461118490615373565b80601f01602080910402602001604051908101604052809291908181526020018280546111b090615373565b80156111fd5780601f106111d2576101008083540402835291602001916111fd565b820191906000526020600020905b8154815290600101906020018083116111e057829003601f168201915b505050505081526020016005820160009054906101000a900473ffffffffffffffffffffffffffffffffffffffff1673ffffffffffffffffffffffffffffffffffffffff1673ffffffffffffffffffffffffffffffffffffffff168152505090503373ffffffffffffffffffffffffffffffffffffffff168160a0015173ffffffffffffffffffffffffffffffffffffffff16146112c7576040517f30cd747100000000000000000000000000000000000000000000000000000000815260040160405180910390fd5b6000600360008581526020019081526020016000206040518060c00160405290816000820180546112f790615373565b80601f016020809104026020016040519081016040528092919081815260200182805461132390615373565b80156113705780601f1061134557610100808354040283529160200191611370565b820191906000526020600020905b81548152906001019060200180831161135357829003601f168201915b5050505050815260200160018201805461138990615373565b80601f01602080910402602001604051908101604052809291908181526020018280546113b590615373565b80156114025780601f106113d757610100808354040283529160200191611402565b820191906000526020600020905b8154815290600101906020018083116113e557829003601f168201915b50505050508152602001600282015481526020016003820154815260200160048201805461142f90615373565b80601f016020809104026020016040519081016040528092919081815260200182805461145b90615373565b80156114a85780601f1061147d576101008083540402835291602001916114a8565b820191906000526020600020905b81548152906001019060200180831161148b57829003601f168201915b505050505081526020016005820160009054906101000a900473ffffffffffffffffffffffffffffffffffffffff1673ffffffffffffffffffffffffffffffffffffffff1673ffffffffffffffffffffffffffffffffffffffff16815250509050600260008581526020019081526020016000206000808201600061152d9190614a89565b60018201600061153d9190614a89565b6002820160009055600382016000905560048201600061155d9190614a89565b6005820160006101000a81549073ffffffffffffffffffffffffffffffffffffffff021916905550508060a0015173ffffffffffffffffffffffffffffffffffffffff1681602001516040516115b3919061583e565b604051809103902082600001516040516115cd919061583e565b60405180910390207fdcdeb9d4d3fbcaaab380d777c1e5067b4a5d7dba5c8f09497a78a5c331796e66600160008981526020019081526020016000206040516116169190615a08565b60405180910390a450505050565b61162c614a3d565b600460008381526020019081526020016000206040518060c001604052908160008201805461165a90615373565b80601f016020809104026020016040519081016040528092919081815260200182805461168690615373565b80156116d35780601f106116a8576101008083540402835291602001916116d3565b820191906000526020600020905b8154815290600101906020018083116116b657829003601f168201915b505050505081526020016001820180546116ec90615373565b80601f016020809104026020016040519081016040528092919081815260200182805461171890615373565b80156117655780601f1061173a57610100808354040283529160200191611765565b820191906000526020600020905b81548152906001019060200180831161174857829003601f168201915b50505050508152602001600282015481526020016003820154815260200160048201805461179290615373565b80601f01602080910402602001604051908101604052809291908181526020018280546117be90615373565b801561180b5780601f106117e05761010080835404028352916020019161180b565b820191906000526020600020905b8154815290600101906020018083116117ee57829003601f168201915b505050505081526020016005820160009054906101000a900473ffffffffffffffffffffffffffffffffffffffff1673ffffffffffffffffffffffffffffffffffffffff1673ffffffffffffffffffffffffffffffffffffffff16815250509050919050565b611879614a3d565b600660008381526020019081526020016000206040518060c00160405290816000820180546118a790615373565b80601f01602080910402602001604051908101604052809291908181526020018280546118d390615373565b80156119205780601f106118f557610100808354040283529160200191611920565b820191906000526020600020905b81548152906001019060200180831161190357829003601f168201915b5050505050815260200160018201805461193990615373565b80601f016020809104026020016040519081016040528092919081815260200182805461196590615373565b80156119b25780601f10611987576101008083540402835291602001916119b2565b820191906000526020600020905b81548152906001019060200180831161199557829003601f168201915b5050505050815260200160028201548152602001600382015481526020016004820180546119df90615373565b80601f0160208091040260200160405190810160405280929190818152602001828054611a0b90615373565b8015611a585780601f10611a2d57610100808354040283529160200191611a58565b820191906000526020600020905b815481529060010190602001808311611a3b57829003601f168201915b505050505081526020016005820160009054906101000a900473ffffffffffffffffffffffffffffffffffffffff1673ffffffffffffffffffffffffffffffffffffffff1673ffffffffffffffffffffffffffffffffffffffff16815250509050919050565b611ac6614a3d565b600360008381526020019081526020016000206040518060c0016040529081600082018054611af490615373565b80601f0160208091040260200160405190810160405280929190818152602001828054611b2090615373565b8015611b6d5780601f10611b4257610100808354040283529160200191611b6d565b820191906000526020600020905b815481529060010190602001808311611b5057829003601f168201915b50505050508152602001600182018054611b8690615373565b80601f0160208091040260200160405190810160405280929190818152602001828054611bb290615373565b8015611bff5780601f10611bd457610100808354040283529160200191611bff565b820191906000526020600020905b815481529060010190602001808311611be257829003601f168201915b505050505081526020016002820154815260200160038201548152602001600482018054611c2c90615373565b80601f0160208091040260200160405190810160405280929190818152602001828054611c5890615373565b8015611ca55780601f10611c7a57610100808354040283529160200191611ca5565b820191906000526020600020905b815481529060010190602001808311611c8857829003601f168201915b505050505081526020016005820160009054906101000a900473ffffffffffffffffffffffffffffffffffffffff1673ffffffffffffffffffffffffffffffffffffffff1673ffffffffffffffffffffffffffffffffffffffff16815250509050919050565b611d13614ac9565b600760008381526020019081526020016000206040518060a00160405290816000820160009054906101000a900473ffffffffffffffffffffffffffffffffffffffff1673ffffffffffffffffffffffffffffffffffffffff1673ffffffffffffffffffffffffffffffffffffffff1681526020016001820160009054906101000a900473ffffffffffffffffffffffffffffffffffffffff1673ffffffffffffffffffffffffffffffffffffffff1673ffffffffffffffffffffffffffffffffffffffff1681526020016002820160009054906101000a900473ffffffffffffffffffffffffffffffffffffffff1673ffffffffffffffffffffffffffffffffffffffff1673ffffffffffffffffffffffffffffffffffffffff1681526020016003820160009054906101000a900473ffffffffffffffffffffffffffffffffffffffff1673ffffffffffffffffffffffffffffffffffffffff1673ffffffffffffffffffffffffffffffffffffffff1681526020016004820160009054906101000a900473ffffffffffffffffffffffffffffffffffffffff1673ffffffffffffffffffffffffffffffffffffffff1673ffffffffffffffffffffffffffffffffffffffff16815250509050919050565b60076020528060005260406000206000915090508060000160009054906101000a900473ffffffffffffffffffffffffffffffffffffffff16908060010160009054906101000a900473ffffffffffffffffffffffffffffffffffffffff16908060020160009054906101000a900473ffffffffffffffffffffffffffffffffffffffff16908060030160009054906101000a900473ffffffffffffffffffffffffffffffffffffffff16908060040160009054906101000a900473ffffffffffffffffffffffffffffffffffffffff16905085565b6003602052806000526040600020600091509050806000018054611fdf90615373565b80601f016020809104026020016040519081016040528092919081815260200182805461200b90615373565b80156120585780601f1061202d57610100808354040283529160200191612058565b820191906000526020600020905b81548152906001019060200180831161203b57829003601f168201915b50505050509080600101805461206d90615373565b80601f016020809104026020016040519081016040528092919081815260200182805461209990615373565b80156120e65780601f106120bb576101008083540402835291602001916120e6565b820191906000526020600020905b8154815290600101906020018083116120c957829003601f168201915b50505050509080600201549080600301549080600401805461210790615373565b80601f016020809104026020016040519081016040528092919081815260200182805461213390615373565b80156121805780601f1061215557610100808354040283529160200191612180565b820191906000526020600020905b81548152906001019060200180831161216357829003601f168201915b5050505050908060050160009054906101000a900473ffffffffffffffffffffffffffffffffffffffff16905086565b60046020528060005260406000206000915090508060000180546121d390615373565b80601f01602080910402602001604051908101604052809291908181526020018280546121ff90615373565b801561224c5780601f106122215761010080835404028352916020019161224c565b820191906000526020600020905b81548152906001019060200180831161222f57829003601f168201915b50505050509080600101805461226190615373565b80601f016020809104026020016040519081016040528092919081815260200182805461228d90615373565b80156122da5780601f106122af576101008083540402835291602001916122da565b820191906000526020600020905b8154815290600101906020018083116122bd57829003601f168201915b5050505050908060020154908060030154908060040180546122fb90615373565b80601f016020809104026020016040519081016040528092919081815260200182805461232790615373565b80156123745780601f1061234957610100808354040283529160200191612374565b820191906000526020600020905b81548152906001019060200180831161235757829003601f168201915b5050505050908060050160009054906101000a900473ffffffffffffffffffffffffffffffffffffffff16905086565b60056020528060005260406000206000915090508060000180546123c790615373565b80601f01602080910402602001604051908101604052809291908181526020018280546123f390615373565b80156124405780601f1061241557610100808354040283529160200191612440565b820191906000526020600020905b81548152906001019060200180831161242357829003601f168201915b50505050509080600101805461245590615373565b80601f016020809104026020016040519081016040528092919081815260200182805461248190615373565b80156124ce5780601f106124a3576101008083540402835291602001916124ce565b820191906000526020600020905b8154815290600101906020018083116124b157829003601f168201915b5050505050908060020154908060030154908060040180546124ef90615373565b80601f016020809104026020016040519081016040528092919081815260200182805461251b90615373565b80156125685780601f1061253d57610100808354040283529160200191612568565b820191906000526020600020905b81548152906001019060200180831161254b57829003601f168201915b5050505050908060050160009054906101000a900473ffffffffffffffffffffffffffffffffffffffff16905086565b6125a0614a3d565b600260008381526020019081526020016000206040518060c00160405290816000820180546125ce90615373565b80601f01602080910402602001604051908101604052809291908181526020018280546125fa90615373565b80156126475780601f1061261c57610100808354040283529160200191612647565b820191906000526020600020905b81548152906001019060200180831161262a57829003601f168201915b5050505050815260200160018201805461266090615373565b80601f016020809104026020016040519081016040528092919081815260200182805461268c90615373565b80156126d95780601f106126ae576101008083540402835291602001916126d9565b820191906000526020600020905b8154815290600101906020018083116126bc57829003601f168201915b50505050508152602001600282015481526020016003820154815260200160048201805461270690615373565b80601f016020809104026020016040519081016040528092919081815260200182805461273290615373565b801561277f5780601f106127545761010080835404028352916020019161277f565b820191906000526020600020905b81548152906001019060200180831161276257829003601f168201915b505050505081526020016005820160009054906101000a900473ffffffffffffffffffffffffffffffffffffffff1673ffffffffffffffffffffffffffffffffffffffff1673ffffffffffffffffffffffffffffffffffffffff16815250509050919050565b6001602052816000526040600020818154811061280157600080fd5b90600052602060002090600202016000915091505080600001805461282590615373565b80601f016020809104026020016040519081016040528092919081815260200182805461285190615373565b801561289e5780601f106128735761010080835404028352916020019161289e565b820191906000526020600020905b81548152906001019060200180831161288157829003601f168201915b5050505050908060010154905082565b600060405180604001604052806040518060400160405280601d81526020017f4469737472696275746f72207472616e7320746f2052655461696c6572000000815250815260200142815250905060016000838152602001908152602001600020819080600181540180825580915050600190039060005260206000209060020201600090919091909150600082015181600001908161294e9190615730565b506020820151816001015550506000600660008481526020019081526020016000206040518060c001604052908160008201805461298b90615373565b80601f01602080910402602001604051908101604052809291908181526020018280546129b790615373565b8015612a045780601f106129d957610100808354040283529160200191612a04565b820191906000526020600020905b8154815290600101906020018083116129e757829003601f168201915b50505050508152602001600182018054612a1d90615373565b80601f0160208091040260200160405190810160405280929190818152602001828054612a4990615373565b8015612a965780601f10612a6b57610100808354040283529160200191612a96565b820191906000526020600020905b815481529060010190602001808311612a7957829003601f168201915b505050505081526020016002820154815260200160038201548152602001600482018054612ac390615373565b80601f0160208091040260200160405190810160405280929190818152602001828054612aef90615373565b8015612b3c5780601f10612b1157610100808354040283529160200191612b3c565b820191906000526020600020905b815481529060010190602001808311612b1f57829003601f168201915b505050505081526020016005820160009054906101000a900473ffffffffffffffffffffffffffffffffffffffff1673ffffffffffffffffffffffffffffffffffffffff1673ffffffffffffffffffffffffffffffffffffffff1681525050905060013414612bd7576040517fa2c2d5c600000000000000000000000000000000000000000000000000000000815260040160405180910390fd5b6005600084815260200190815260200160002060008082016000612bfb9190614a89565b600182016000612c0b9190614a89565b60028201600090556003820160009055600482016000612c2b9190614a89565b6005820160006101000a81549073ffffffffffffffffffffffffffffffffffffffff021916905550506040518060c0016040528082600001518152602001826020015181526020018260400151815260200182606001518152602001826080015181526020013373ffffffffffffffffffffffffffffffffffffffff16815250600660008581526020019081526020016000206000820151816000019081612cd39190615730565b506020820151816001019081612ce99190615730565b5060408201518160020155606082015181600301556080820151816004019081612d139190615730565b5060a08201518160050160006101000a81548173ffffffffffffffffffffffffffffffffffffffff021916908373ffffffffffffffffffffffffffffffffffffffff16021790555090505033600760008360400151815260200190815260200160002060040160006101000a81548173ffffffffffffffffffffffffffffffffffffffff021916908373ffffffffffffffffffffffffffffffffffffffff16021790555060008160a0015173ffffffffffffffffffffffffffffffffffffffff166001604051612de290615a5b565b60006040518083038185875af1925050503d8060008114612e1f576040519150601f19603f3d011682016040523d82523d6000602084013e612e24565b606091505b5050905080612e68576040517f08c379a0000000000000000000000000000000000000000000000000000000008152600401612e5f90615abc565b60405180910390fd5b3373ffffffffffffffffffffffffffffffffffffffff168260200151604051612e91919061583e565b60405180910390208360000151604051612eab919061583e565b60405180910390207f7f4d22e3102db62d96401baafb1a65816d3a54672c2a8e18483d3108b239f8678560600151600160008a8152602001908152602001600020604051612efa929190615adc565b60405180910390a450505050565b600080815480929190612f1a906154d9565b9190505550600080549050600060405180604001604052806040518060400160405280600b81526020017f4974656d204c697374656400000000000000000000000000000000000000000081525081526020014281525090506000612f7d610a7c565b90506040518060c001604052808781526020018281526020018481526020018681526020018581526020013373ffffffffffffffffffffffffffffffffffffffff16815250600260008581526020019081526020016000206000820151816000019081612fea9190615730565b5060208201518160010190816130009190615730565b506040820151816002015560608201518160030155608082015181600401908161302a9190615730565b5060a08201518160050160006101000a81548173ffffffffffffffffffffffffffffffffffffffff021916908373ffffffffffffffffffffffffffffffffffffffff1602179055509050506001600084815260200190815260200160002082908060018154018082558091505060019003906000526020600020906002020160009091909190915060008201518160000190816130c79190615730565b50602082015181600101555050336007600085815260200190815260200160002060000160006101000a81548173ffffffffffffffffffffffffffffffffffffffff021916908373ffffffffffffffffffffffffffffffffffffffff1602179055503373ffffffffffffffffffffffffffffffffffffffff168160405161314e919061583e565b604051809103902087604051613164919061583e565b60405180910390207f20eac5418bb9f3da26761791a2254a88704da79ce4b3f4e4d437bbc28a44068c88600160008981526020019081526020016000206040516131af929190615adc565b60405180910390a4505050505050565b6000600260008381526020019081526020016000206040518060c00160405290816000820180546131ef90615373565b80601f016020809104026020016040519081016040528092919081815260200182805461321b90615373565b80156132685780601f1061323d57610100808354040283529160200191613268565b820191906000526020600020905b81548152906001019060200180831161324b57829003601f168201915b5050505050815260200160018201805461328190615373565b80601f01602080910402602001604051908101604052809291908181526020018280546132ad90615373565b80156132fa5780601f106132cf576101008083540402835291602001916132fa565b820191906000526020600020905b8154815290600101906020018083116132dd57829003601f168201915b50505050508152602001600282015481526020016003820154815260200160048201805461332790615373565b80601f016020809104026020016040519081016040528092919081815260200182805461335390615373565b80156133a05780601f10613375576101008083540402835291602001916133a0565b820191906000526020600020905b81548152906001019060200180831161338357829003601f168201915b505050505081526020016005820160009054906101000a900473ffffffffffffffffffffffffffffffffffffffff1673ffffffffffffffffffffffffffffffffffffffff1673ffffffffffffffffffffffffffffffffffffffff1681525050905060026000838152602001908152602001600020600080820160006134259190614a89565b6001820160006134359190614a89565b600282016000905560038201600090556004820160006134559190614a89565b6005820160006101000a81549073ffffffffffffffffffffffffffffffffffffffff021916905550506040518060c0016040528082600001518152602001826020015181526020018260400151815260200182606001518152602001826080015181526020013373ffffffffffffffffffffffffffffffffffffffff168152506003600084815260200190815260200160002060008201518160000190816134fd9190615730565b5060208201518160010190816135139190615730565b506040820151816002015560608201518160030155608082015181600401908161353d9190615730565b5060a08201518160050160006101000a81548173ffffffffffffffffffffffffffffffffffffffff021916908373ffffffffffffffffffffffffffffffffffffffff160217905550905050600060405180604001604052806040518060400160405280601c81526020017f5472616e73666572206f6620736565647320746f206661726d6572730000000081525081526020014281525090506001600084815260200190815260200160002081908060018154018082558091505060019003906000526020600020906002020160009091909190915060008201518160000190816136289190615730565b5060208201518160010155505033600760008460400151815260200190815260200160002060010160006101000a81548173ffffffffffffffffffffffffffffffffffffffff021916908373ffffffffffffffffffffffffffffffffffffffff16021790555060008260a0015173ffffffffffffffffffffffffffffffffffffffff1660016040516136b990615a5b565b60006040518083038185875af1925050503d80600081146136f6576040519150601f19603f3d011682016040523d82523d6000602084013e6136fb565b606091505b505090508061373f576040517f08c379a000000000000000000000000000000000000000000000000000000000815260040161373690615abc565b60405180910390fd5b3373ffffffffffffffffffffffffffffffffffffffff168360200151604051613768919061583e565b60405180910390208460000151604051613782919061583e565b60405180910390207f7f4d22e3102db62d96401baafb1a65816d3a54672c2a8e18483d3108b239f8678660600151600160008a81526020019081526020016000206040516137d1929190615adc565b60405180910390a450505050565b600060405180604001604052806040518060400160405280601e81526020017f50726f636573736f72207472616e7320746f204469737472696275746f720000815250815260200142815250905060016000838152602001908152602001600020819080600181540180825580915050600190039060005260206000209060020201600090919091909150600082015181600001908161387f9190615730565b506020820151816001015550506000600560008481526020019081526020016000206040518060c00160405290816000820180546138bc90615373565b80601f01602080910402602001604051908101604052809291908181526020018280546138e890615373565b80156139355780601f1061390a57610100808354040283529160200191613935565b820191906000526020600020905b81548152906001019060200180831161391857829003601f168201915b5050505050815260200160018201805461394e90615373565b80601f016020809104026020016040519081016040528092919081815260200182805461397a90615373565b80156139c75780601f1061399c576101008083540402835291602001916139c7565b820191906000526020600020905b8154815290600101906020018083116139aa57829003601f168201915b5050505050815260200160028201548152602001600382015481526020016004820180546139f490615373565b80601f0160208091040260200160405190810160405280929190818152602001828054613a2090615373565b8015613a6d5780601f10613a4257610100808354040283529160200191613a6d565b820191906000526020600020905b815481529060010190602001808311613a5057829003601f168201915b505050505081526020016005820160009054906101000a900473ffffffffffffffffffffffffffffffffffffffff1673ffffffffffffffffffffffffffffffffffffffff1673ffffffffffffffffffffffffffffffffffffffff1681525050905060013414613b08576040517fa2c2d5c600000000000000000000000000000000000000000000000000000000815260040160405180910390fd5b6004600084815260200190815260200160002060008082016000613b2c9190614a89565b600182016000613b3c9190614a89565b60028201600090556003820160009055600482016000613b5c9190614a89565b6005820160006101000a81549073ffffffffffffffffffffffffffffffffffffffff021916905550506040518060c0016040528082600001518152602001826020015181526020018260400151815260200182606001518152602001826080015181526020013373ffffffffffffffffffffffffffffffffffffffff16815250600560008581526020019081526020016000206000820151816000019081613c049190615730565b506020820151816001019081613c1a9190615730565b5060408201518160020155606082015181600301556080820151816004019081613c449190615730565b5060a08201518160050160006101000a81548173ffffffffffffffffffffffffffffffffffffffff021916908373ffffffffffffffffffffffffffffffffffffffff16021790555090505033600760008360400151815260200190815260200160002060030160006101000a81548173ffffffffffffffffffffffffffffffffffffffff021916908373ffffffffffffffffffffffffffffffffffffffff16021790555060008160a0015173ffffffffffffffffffffffffffffffffffffffff166001604051613d1390615a5b565b60006040518083038185875af1925050503d8060008114613d50576040519150601f19603f3d011682016040523d82523d6000602084013e613d55565b606091505b5050905080613d99576040517f08c379a0000000000000000000000000000000000000000000000000000000008152600401613d9090615abc565b60405180910390fd5b3373ffffffffffffffffffffffffffffffffffffffff168260200151604051613dc2919061583e565b60405180910390208360000151604051613ddc919061583e565b60405180910390207f7f4d22e3102db62d96401baafb1a65816d3a54672c2a8e18483d3108b239f8678560600151600160008a8152602001908152602001600020604051613e2b929190615adc565b60405180910390a450505050565b600060405180604001604052806040518060400160405280601981526020017f4661726d6572207472616e7320746f2050726f636573736f72000000000000008152508152602001428152509050600160008381526020019081526020016000208190806001815401808255809150506001900390600052602060002090600202016000909190919091506000820151816000019081613ed99190615730565b506020820151816001015550506000600460008481526020019081526020016000206040518060c0016040529081600082018054613f1690615373565b80601f0160208091040260200160405190810160405280929190818152602001828054613f4290615373565b8015613f8f5780601f10613f6457610100808354040283529160200191613f8f565b820191906000526020600020905b815481529060010190602001808311613f7257829003601f168201915b50505050508152602001600182018054613fa890615373565b80601f0160208091040260200160405190810160405280929190818152602001828054613fd490615373565b80156140215780601f10613ff657610100808354040283529160200191614021565b820191906000526020600020905b81548152906001019060200180831161400457829003601f168201915b50505050508152602001600282015481526020016003820154815260200160048201805461404e90615373565b80601f016020809104026020016040519081016040528092919081815260200182805461407a90615373565b80156140c75780601f1061409c576101008083540402835291602001916140c7565b820191906000526020600020905b8154815290600101906020018083116140aa57829003601f168201915b505050505081526020016005820160009054906101000a900473ffffffffffffffffffffffffffffffffffffffff1673ffffffffffffffffffffffffffffffffffffffff1673ffffffffffffffffffffffffffffffffffffffff16815250509050600360008481526020019081526020016000206000808201600061414c9190614a89565b60018201600061415c9190614a89565b6002820160009055600382016000905560048201600061417c9190614a89565b6005820160006101000a81549073ffffffffffffffffffffffffffffffffffffffff021916905550506040518060c0016040528082600001518152602001826020015181526020018260400151815260200182606001518152602001826080015181526020013373ffffffffffffffffffffffffffffffffffffffff168152506004600085815260200190815260200160002060008201518160000190816142249190615730565b50602082015181600101908161423a9190615730565b50604082015181600201556060820151816003015560808201518160040190816142649190615730565b5060a08201518160050160006101000a81548173ffffffffffffffffffffffffffffffffffffffff021916908373ffffffffffffffffffffffffffffffffffffffff16021790555090505033600760008360400151815260200190815260200160002060020160006101000a81548173ffffffffffffffffffffffffffffffffffffffff021916908373ffffffffffffffffffffffffffffffffffffffff1602179055503373ffffffffffffffffffffffffffffffffffffffff168160200151604051614331919061583e565b6040518091039020826000015160405161434b919061583e565b60405180910390207f7f4d22e3102db62d96401baafb1a65816d3a54672c2a8e18483d3108b239f86784606001516001600089815260200190815260200160002060405161439a929190615adc565b60405180910390a4505050565b6000600560008381526020019081526020016000206040518060c00160405290816000820180546143d790615373565b80601f016020809104026020016040519081016040528092919081815260200182805461440390615373565b80156144505780601f1061442557610100808354040283529160200191614450565b820191906000526020600020905b81548152906001019060200180831161443357829003601f168201915b5050505050815260200160018201805461446990615373565b80601f016020809104026020016040519081016040528092919081815260200182805461449590615373565b80156144e25780601f106144b7576101008083540402835291602001916144e2565b820191906000526020600020905b8154815290600101906020018083116144c557829003601f168201915b50505050508152602001600282015481526020016003820154815260200160048201805461450f90615373565b80601f016020809104026020016040519081016040528092919081815260200182805461453b90615373565b80156145885780601f1061455d57610100808354040283529160200191614588565b820191906000526020600020905b81548152906001019060200180831161456b57829003601f168201915b505050505081526020016005820160009054906101000a900473ffffffffffffffffffffffffffffffffffffffff1673ffffffffffffffffffffffffffffffffffffffff1673ffffffffffffffffffffffffffffffffffffffff1681525050905060013414614623576040517fa2c2d5c600000000000000000000000000000000000000000000000000000000815260040160405180910390fd5b60056000838152602001908152602001600020600080820160006146479190614a89565b6001820160006146579190614a89565b600282016000905560038201600090556004820160006146779190614a89565b6005820160006101000a81549073ffffffffffffffffffffffffffffffffffffffff0219169055505033600760008360400151815260200190815260200160002060040160006101000a81548173ffffffffffffffffffffffffffffffffffffffff021916908373ffffffffffffffffffffffffffffffffffffffff16021790555060008160a0015173ffffffffffffffffffffffffffffffffffffffff16600160405161472490615a5b565b60006040518083038185875af1925050503d8060008114614761576040519150601f19603f3d011682016040523d82523d6000602084013e614766565b606091505b50509050806147aa576040517f08c379a00000000000000000000000000000000000000000000000000000000081526004016147a190615abc565b60405180910390fd5b3373ffffffffffffffffffffffffffffffffffffffff1682602001516040516147d3919061583e565b604051809103902083600001516040516147ed919061583e565b60405180910390207f652c81b37dc15aa7410a81542f602f4985daeaf59bbc04851844738231b30e6785606001516001600089815260200190815260200160002060405161483c929190615adc565b60405180910390a4505050565b600260205280600052604060002060009150905080600001805461486c90615373565b80601f016020809104026020016040519081016040528092919081815260200182805461489890615373565b80156148e55780601f106148ba576101008083540402835291602001916148e5565b820191906000526020600020905b8154815290600101906020018083116148c857829003601f168201915b5050505050908060010180546148fa90615373565b80601f016020809104026020016040519081016040528092919081815260200182805461492690615373565b80156149735780601f1061494857610100808354040283529160200191614973565b820191906000526020600020905b81548152906001019060200180831161495657829003601f168201915b50505050509080600201549080600301549080600401805461499490615373565b80601f01602080910402602001604051908101604052809291908181526020018280546149c090615373565b8015614a0d5780601f106149e257610100808354040283529160200191614a0d565b820191906000526020600020905b8154815290600101906020018083116149f057829003601f168201915b5050505050908060050160009054906101000a900473ffffffffffffffffffffffffffffffffffffffff16905086565b6040518060c001604052806060815260200160608152602001600081526020016000815260200160608152602001600073ffffffffffffffffffffffffffffffffffffffff1681525090565b508054614a9590615373565b6000825580601f10614aa75750614ac6565b601f016020900490600052602060002090810190614ac59190614b66565b5b50565b6040518060a00160405280600073ffffffffffffffffffffffffffffffffffffffff168152602001600073ffffffffffffffffffffffffffffffffffffffff168152602001600073ffffffffffffffffffffffffffffffffffffffff168152602001600073ffffffffffffffffffffffffffffffffffffffff168152602001600073ffffffffffffffffffffffffffffffffffffffff1681525090565b5b80821115614b7f576000816000905550600101614b67565b5090565b6000819050919050565b614b9681614b83565b82525050565b6000602082019050614bb16000830184614b8d565b92915050565b6000604051905090565b600080fd5b600080fd5b614bd481614b83565b8114614bdf57600080fd5b50565b600081359050614bf181614bcb565b92915050565b600060208284031215614c0d57614c0c614bc1565b5b6000614c1b84828501614be2565b91505092915050565b600081519050919050565b600082825260208201905092915050565b6000819050602082019050919050565b600081519050919050565b600082825260208201905092915050565b60005b83811015614c8a578082015181840152602081019050614c6f565b60008484015250505050565b6000601f19601f8301169050919050565b6000614cb282614c50565b614cbc8185614c5b565b9350614ccc818560208601614c6c565b614cd581614c96565b840191505092915050565b614ce981614b83565b82525050565b60006040830160008301518482036000860152614d0c8282614ca7565b9150506020830151614d216020860182614ce0565b508091505092915050565b6000614d388383614cef565b905092915050565b6000602082019050919050565b6000614d5882614c24565b614d628185614c2f565b935083602082028501614d7485614c40565b8060005b85811015614db05784840389528151614d918582614d2c565b9450614d9c83614d40565b925060208a01995050600181019050614d78565b50829750879550505050505092915050565b60006020820190508181036000830152614ddc8184614d4d565b905092915050565b600073ffffffffffffffffffffffffffffffffffffffff82169050919050565b6000614e0f82614de4565b9050919050565b614e1f81614e04565b82525050565b600060c0830160008301518482036000860152614e428282614ca7565b91505060208301518482036020860152614e5c8282614ca7565b9150506040830151614e716040860182614ce0565b506060830151614e846060860182614ce0565b5060808301518482036080860152614e9c8282614ca7565b91505060a0830151614eb160a0860182614e16565b508091505092915050565b60006020820190508181036000830152614ed68184614e25565b905092915050565b600082825260208201905092915050565b6000614efa82614c50565b614f048185614ede565b9350614f14818560208601614c6c565b614f1d81614c96565b840191505092915050565b60006020820190508181036000830152614f428184614eef565b905092915050565b614f5381614e04565b82525050565b600060c0820190508181036000830152614f738189614eef565b90508181036020830152614f878188614eef565b9050614f966040830187614b8d565b614fa36060830186614b8d565b8181036080830152614fb58185614eef565b9050614fc460a0830184614f4a565b979650505050505050565b600080fd5b600080fd5b7f4e487b7100000000000000000000000000000000000000000000000000000000600052604160045260246000fd5b61501182614c96565b810181811067ffffffffffffffff821117156150305761502f614fd9565b5b80604052505050565b6000615043614bb7565b905061504f8282615008565b919050565b600067ffffffffffffffff82111561506f5761506e614fd9565b5b61507882614c96565b9050602081019050919050565b82818337600083830152505050565b60006150a76150a284615054565b615039565b9050828152602081018484840111156150c3576150c2614fd4565b5b6150ce848285615085565b509392505050565b600082601f8301126150eb576150ea614fcf565b5b81356150fb848260208601615094565b91505092915050565b60008060006060848603121561511d5761511c614bc1565b5b600061512b86828701614be2565b935050602084013567ffffffffffffffff81111561514c5761514b614bc6565b5b615158868287016150d6565b925050604061516986828701614be2565b9150509250925092565b60a0820160008201516151896000850182614e16565b50602082015161519c6020850182614e16565b5060408201516151af6040850182614e16565b5060608201516151c26060850182614e16565b5060808201516151d56080850182614e16565b50505050565b600060a0820190506151f06000830184615173565b92915050565b600060a08201905061520b6000830188614f4a565b6152186020830187614f4a565b6152256040830186614f4a565b6152326060830185614f4a565b61523f6080830184614f4a565b9695505050505050565b600080604083850312156152605761525f614bc1565b5b600061526e85828601614be2565b925050602061527f85828601614be2565b9150509250929050565b600060408201905081810360008301526152a38185614eef565b90506152b26020830184614b8d565b9392505050565b6000806000606084860312156152d2576152d1614bc1565b5b600084013567ffffffffffffffff8111156152f0576152ef614bc6565b5b6152fc868287016150d6565b935050602061530d86828701614be2565b925050604084013567ffffffffffffffff81111561532e5761532d614bc6565b5b61533a868287016150d6565b9150509250925092565b7f4e487b7100000000000000000000000000000000000000000000000000000000600052602260045260246000fd5b6000600282049050600182168061538b57607f821691505b60208210810361539e5761539d615344565b5b50919050565b6000819050919050565b6153bf6153ba82614b83565b6153a4565b82525050565b60008160601b9050919050565b60006153dd826153c5565b9050919050565b60006153ef826153d2565b9050919050565b61540761540282614e04565b6153e4565b82525050565b600061541982866153ae565b60208201915061542982856153f6565b60148201915061543982846153ae565b602082019150819050949350505050565b7f4e487b7100000000000000000000000000000000000000000000000000000000600052601260045260246000fd5b600061548482614b83565b915061548f83614b83565b92508261549f5761549e61544a565b5b828206905092915050565b7f4e487b7100000000000000000000000000000000000000000000000000000000600052601160045260246000fd5b60006154e482614b83565b91507fffffffffffffffffffffffffffffffffffffffffffffffffffffffffffffffff8203615516576155156154aa565b5b600182019050919050565b600061552c82614b83565b915061553783614b83565b925082820190508082111561554f5761554e6154aa565b5b92915050565b7f4e487b7100000000000000000000000000000000000000000000000000000000600052603260045260246000fd5b60008190508160005260206000209050919050565b60006020601f8301049050919050565b600082821b905092915050565b6000600883026155e67fffffffffffffffffffffffffffffffffffffffffffffffffffffffffffffffff826155a9565b6155f086836155a9565b95508019841693508086168417925050509392505050565b6000819050919050565b600061562d61562861562384614b83565b615608565b614b83565b9050919050565b6000819050919050565b61564783615612565b61565b61565382615634565b8484546155b6565b825550505050565b600090565b615670615663565b61567b81848461563e565b505050565b5b8181101561569f57615694600082615668565b600181019050615681565b5050565b601f8211156156e4576156b581615584565b6156be84615599565b810160208510156156cd578190505b6156e16156d985615599565b830182615680565b50505b505050565b600082821c905092915050565b6000615707600019846008026156e9565b1980831691505092915050565b600061572083836156f6565b9150826002028217905092915050565b61573982614c50565b67ffffffffffffffff81111561575257615751614fd9565b5b61575c8254615373565b6157678282856156a3565b600060209050601f83116001811461579a5760008415615788578287015190505b6157928582615714565b8655506157fa565b601f1984166157a886615584565b60005b828110156157d0578489015182556001820191506020850194506020810190506157ab565b868310156157ed57848901516157e9601f8916826156f6565b8355505b6001600288020188555050505b505050505050565b600081905092915050565b600061581882614c50565b6158228185615802565b9350615832818560208601614c6c565b80840191505092915050565b600061584a828461580d565b915081905092915050565b600081549050919050565b60008190508160005260206000209050919050565b6000815461588281615373565b61588c8186614c5b565b945060018216600081146158a757600181146158bd576158f0565b60ff1983168652811515602002860193506158f0565b6158c685615584565b60005b838110156158e8578154818901526001820191506020810190506158c9565b808801955050505b50505092915050565b60008160001c9050919050565b6000819050919050565b600061592361591e836158f9565b615906565b9050919050565b600060408301600080840185830360008701526159478382615875565b9250506001840154905061595a81615910565b6159676020870182614ce0565b50819250505092915050565b600061597f838361592a565b905092915050565b6000600282019050919050565b600061599f82615855565b6159a98185614c2f565b9350836020820285016159bb85615860565b8060005b858110156159f6578484038952816159d78582615973565b94506159e283615987565b925060208a019950506001810190506159bf565b50829750879550505050505092915050565b60006020820190508181036000830152615a228184615994565b905092915050565b600081905092915050565b50565b6000615a45600083615a2a565b9150615a5082615a35565b600082019050919050565b6000615a6682615a38565b9150819050919050565b7f63616c6c206661696c6564000000000000000000000000000000000000000000600082015250565b6000615aa6600b83614ede565b9150615ab182615a70565b602082019050919050565b60006020820190508181036000830152615ad581615a99565b9050919050565b6000604082019050615af16000830185614b8d565b8181036020830152615b038184615994565b9050939250505056fea2646970667358221220981de9306d0cc8ad18b2195ba83ed803788a9aa4ecce65e2776bd086a0655c2064736f6c63430008130033",
  "immutableReferences": {},
  "source": "// SPDX-License-Identifier: MIT\npragma solidity ^0.8.17;\n\n// Errors\nerror NotListed();\nerror PriceMustNotZero();\nerror PriceNotMet();\nerror NotOwner();\n\ncontract SupplyChain {\n    uint256 public s_tokenIDs;\n    struct Data {\n        string data;\n        uint256 created_at;\n    }\n\n    // State Variables\n    struct Product {\n        string productName;\n        string barcode;\n        uint256 tokenId;\n        uint256 productQuantity;\n        string cateory;\n        address seller;\n    }\n    struct Owners {\n        address providerAddress;\n        address farmerAddress;\n        address processorAddress;\n        address distributerAddress;\n        address retailerAddress;\n    }\n\n    // Mappings - To keep track of Products and it's owners\n    // Farmers inventory - tokenId => Product\n    mapping(uint256 => Data[]) public s_DataProduct;\n\n    mapping(uint256 => Product) public s_providerinventory;\n\n    mapping(uint256 => Product) public s_farmerInventory;\n    // Distributer inventory - tokenId => Product\n    mapping(uint256 => Product) public s_processorInventory;\n\n    mapping(uint256 => Product) public s_distributerInventory;\n    // Token Id to all the owners\n    mapping(uint256 => Product) public s_retailerInventory;\n\n    mapping(uint256 => Owners) public s_productOwners;\n    // Product Name => List of products in distributers inventory\n    // Because retailer may not know the token id\n    mapping(uint256 => Product) public s_UserInventory;\n\n    // Events - fire events on state changes\n    event ItemListed(\n        string indexed productName,\n        string indexed barcode,\n        uint256 productQuantity,\n        address indexed seller,\n        Data[] s_DataProduct\n    );\n    event ItemBought(\n        string indexed productName,\n        string indexed barcode,\n        uint256 productQuantity,\n        address indexed seller,\n        Data[] s_DataProduct\n    );\n    event ItemCanceled(\n        string indexed productName,\n        string indexed barcode,\n        address indexed seller,\n        Data[] s_DataProduct\n    );\n    event ItemUpdated(\n        string indexed productName,\n        string indexed barcode,\n        address indexed seller,\n        Data[] s_DataProduct\n    );\n    event ItemPurchased(\n        string indexed productName,\n        string indexed barcode,\n        uint256 productQuantity,\n        address indexed seller,\n        Data[] s_DataProduct\n    );\n\n    // Modifiers\n    // Item not listed Yet\n\n    // Can be called only by owner\n    modifier isOwner(uint256 _tokenID) {\n        Product memory product = s_providerinventory[_tokenID];\n        if (product.seller != msg.sender) {\n            revert NotOwner();\n        }\n        _;\n    }\n\n    uint randNonce = 0;\n\n    function generateRandomString() public returns (string memory) {\n        bytes memory randomBytes = new bytes(6);\n\n        for (uint i = 0; i < 6; i++) {\n            uint randomNumber = uint(\n                keccak256(\n                    abi.encodePacked(block.timestamp, msg.sender, randNonce)\n                )\n            ) % 26;\n            randNonce++;\n            uint8 convertedRandomNumber = uint8(randomNumber + 65);\n            randomBytes[i] = bytes1(convertedRandomNumber);\n        }\n\n        return string(randomBytes);\n    }\n\n    function getCurrentTime() public view returns (uint256) {\n        return block.timestamp;\n    }\n\n    function listItem(\n        string memory _ProductName,\n        uint256 _quantity,\n        string memory _category\n    ) external {\n        s_tokenIDs++;\n        uint256 currentID = s_tokenIDs;\n        Data memory newData = Data(\"Item Listed\", block.timestamp);\n        // s_providerinventory[currentID].dataproduct.push(newData);\n        string memory barcode = generateRandomString();\n        s_providerinventory[currentID] = Product(\n            _ProductName,\n            barcode,\n            currentID,\n            _quantity,\n            _category,\n            msg.sender\n        );\n        s_DataProduct[currentID].push(newData);\n        s_productOwners[currentID].providerAddress = msg.sender;\n        emit ItemListed(\n            _ProductName,\n            barcode,\n            _quantity,\n            msg.sender,\n            s_DataProduct[currentID]\n        );\n    }\n\n    // Cp nht data cho sn phm\n    function updateInfo(\n        uint256 _tokenID,\n        string memory _data, uint256 _time\n    ) external {\n        require(  _time <= block.timestamp);\n        Data memory data = Data(_data,_time); \n        s_DataProduct[_tokenID].push(data);\n    }\n\n    /// @notice Cancel the listing of a product\n    /// @param _tokenID - The token id of the product to be canceled\n    function cancelItem(uint256 _tokenID) external isOwner(_tokenID) {\n        Product memory product = s_farmerInventory[_tokenID];\n        delete (s_providerinventory[_tokenID]);\n\n        emit ItemCanceled(\n            product.productName,\n            product.barcode,\n            product.seller,\n            s_DataProduct[_tokenID]\n        );\n    }\n\n    // Distributer functions\n    /// @notice Buy the product from farmer and add it into distributer's inventory\n    /// @param _tokenID - The token id of the product to be bought\n    function buyItemfromfamer(uint256 _tokenID) external payable {\n        Data memory newdata = Data(\n            \"Farmer trans to Processor\",\n            block.timestamp\n        );\n        s_DataProduct[_tokenID].push(newdata);\n\n        Product memory product = s_processorInventory[_tokenID];\n        delete (s_farmerInventory[_tokenID]);\n        s_processorInventory[_tokenID] = Product(\n            product.productName,\n            product.barcode,\n            product.tokenId,\n            product.productQuantity,\n            product.cateory,\n            msg.sender\n        );\n        s_productOwners[product.tokenId].processorAddress = msg.sender;\n\n        emit ItemBought(\n            product.productName,\n            product.barcode,\n            product.productQuantity,\n            msg.sender,\n            s_DataProduct[_tokenID]\n        );\n    }\n\n    function BuyItemfromProvider(uint256 _tokenID) external payable {\n        Product memory product = s_providerinventory[_tokenID];\n\n        delete (s_providerinventory[_tokenID]);\n        s_farmerInventory[_tokenID] = Product(\n            product.productName,\n            product.barcode,\n            product.tokenId,\n            product.productQuantity,\n            product.cateory,\n            msg.sender\n        );\n        Data memory newdata = Data(\n            \"Transfer of seeds to farmers\",\n            block.timestamp\n        );\n        s_DataProduct[_tokenID].push(newdata);\n        s_productOwners[product.tokenId].farmerAddress = msg.sender;\n        (bool success, ) = payable(product.seller).call{value: 1}(\"\");\n        require(success, \"call failed\");\n        emit ItemBought(\n            product.productName,\n            product.barcode,\n            product.productQuantity,\n            msg.sender,\n            s_DataProduct[_tokenID]\n        );\n    }\n\n    function buyItemfromProcessor(uint256 _tokenID) external payable {\n        Data memory newdata = Data(\n            \"Processor trans to Distributor\",\n            block.timestamp\n        );\n        s_DataProduct[_tokenID].push(newdata);\n\n        Product memory product = s_distributerInventory[_tokenID];\n        if (msg.value != 1) {\n            revert PriceNotMet();\n        }\n        delete (s_processorInventory[_tokenID]);\n        s_distributerInventory[_tokenID] = Product(\n            product.productName,\n            product.barcode,\n            product.tokenId,\n            product.productQuantity,\n            product.cateory,\n            msg.sender\n        );\n        s_productOwners[product.tokenId].distributerAddress = msg.sender;\n        (bool success, ) = payable(product.seller).call{value: 1}(\"\");\n        require(success, \"call failed\");\n        emit ItemBought(\n            product.productName,\n            product.barcode,\n            product.productQuantity,\n            msg.sender,\n            s_DataProduct[_tokenID]\n        );\n    }\n\n    function buyItemfromdistributor(uint256 _tokenID) external payable {\n        Data memory newdata = Data(\n            \"Distributor trans to ReTailer\",\n            block.timestamp\n        );\n        s_DataProduct[_tokenID].push(newdata);\n\n        Product memory product = s_retailerInventory[_tokenID];\n        if (msg.value != 1) {\n            revert PriceNotMet();\n        }\n        delete (s_distributerInventory[_tokenID]);\n        s_retailerInventory[_tokenID] = Product(\n            product.productName,\n            product.barcode,\n            product.tokenId,\n            product.productQuantity,\n            product.cateory,\n            msg.sender\n        );\n        s_productOwners[product.tokenId].retailerAddress = msg.sender;\n        (bool success, ) = payable(product.seller).call{value: 1}(\"\");\n        require(success, \"call failed\");\n        emit ItemBought(\n            product.productName,\n            product.barcode,\n            product.productQuantity,\n            msg.sender,\n            s_DataProduct[_tokenID]\n        );\n    }\n\n    // Retailer's Functions\n    /// @notice Purchase the item from distributer\n    /// @param _tokenID - The token id of the product to be bought\n    function purchaseItem(uint256 _tokenID) external payable {\n        Product memory product = s_distributerInventory[_tokenID];\n        if (msg.value != 1) {\n            revert PriceNotMet();\n        }\n        delete (s_distributerInventory[_tokenID]);\n\n        s_productOwners[product.tokenId].retailerAddress = msg.sender;\n        (bool success, ) = payable(product.seller).call{value: 1}(\"\");\n        require(success, \"call failed\");\n        emit ItemPurchased(\n            product.productName,\n            product.barcode,\n            product.productQuantity,\n            msg.sender,\n            s_DataProduct[_tokenID]\n        );\n    }\n\n    // Getter functions\n\n    function getProviderListing(\n        uint256 _tokenID\n    ) external view returns (Product memory) {\n        return s_providerinventory[_tokenID];\n    }\n\n    function getFarmerInventory(\n        uint256 _tokenID\n    ) external view returns (Product memory) {\n        return s_farmerInventory[_tokenID];\n    }\n\n    function getProcessorInventory(\n        uint256 _tokenID\n    ) external view returns (Product memory) {\n        return s_processorInventory[_tokenID];\n    }\n\n    function getDistributorInventory(\n        uint256 _tokenID\n    ) external view returns (Product memory) {\n        return s_distributerInventory[_tokenID];\n    }\n\n    function getRetailerInventory(\n        uint256 _tokenID\n    ) external view returns (Product memory) {\n        return s_retailerInventory[_tokenID];\n    }\n\n    function getAllOwners(\n        uint256 _tokenID\n    ) external view returns (Owners memory) {\n        return s_productOwners[_tokenID];\n    }\n\n    function getTokenId() external view returns (uint256) {\n        return s_tokenIDs;\n    }\n\n    function getData(uint256 _tokenID) external view returns (Data[] memory) {\n        return s_DataProduct[_tokenID];\n    }\n}\n",
  "sourcePath": "/Users/macintosh/MyProjects/Suppy-Chain/server/contracts/SupplyChain.sol",
  "compiler": {
    "name": "solc",
    "version": "0.8.19+commit.7dd6d404.Emscripten.clang"
  },
  "schemaVersion": "3.4.13",
  "updatedAt": "2023-04-11T02:06:50.972Z",
  "devdoc": {
    "kind": "dev",
    "methods": {
      "buyItemfromfamer(uint256)": {
        "params": {
          "_tokenID": "- The token id of the product to be bought"
        }
      },
      "cancelItem(uint256)": {
        "params": {
          "_tokenID": "- The token id of the product to be canceled"
        }
      },
      "purchaseItem(uint256)": {
        "params": {
          "_tokenID": "- The token id of the product to be bought"
        }
      }
    },
    "version": 1
  },
  "userdoc": {
    "kind": "user",
    "methods": {
      "buyItemfromfamer(uint256)": {
        "notice": "Buy the product from farmer and add it into distributer's inventory"
      },
      "cancelItem(uint256)": {
        "notice": "Cancel the listing of a product"
      },
      "purchaseItem(uint256)": {
        "notice": "Purchase the item from distributer"
      }
    },
    "version": 1
  }
}